{
  "_format": "hh-sol-artifact-1",
  "contractName": "BrightIdUserRegistry",
  "sourceName": "contracts/userRegistry/BrightIdUserRegistry.sol",
  "abi": [
    {
      "inputs": [
        {
          "internalType": "bytes32",
          "name": "_context",
          "type": "bytes32"
        },
        {
          "internalType": "address",
          "name": "_verifier",
          "type": "address"
        },
        {
          "internalType": "address",
          "name": "_sponsor",
          "type": "address"
        }
      ],
      "stateMutability": "nonpayable",
      "type": "constructor"
    },
    {
      "inputs": [
        {
          "internalType": "address",
          "name": "owner",
          "type": "address"
        }
      ],
      "name": "OwnableInvalidOwner",
      "type": "error"
    },
    {
      "inputs": [
        {
          "internalType": "address",
          "name": "account",
          "type": "address"
        }
      ],
      "name": "OwnableUnauthorizedAccount",
      "type": "error"
    },
    {
      "anonymous": false,
      "inputs": [
        {
          "indexed": true,
          "internalType": "address",
          "name": "previousOwner",
          "type": "address"
        },
        {
          "indexed": true,
          "internalType": "address",
          "name": "newOwner",
          "type": "address"
        }
      ],
      "name": "OwnershipTransferred",
      "type": "event"
    },
    {
      "anonymous": false,
      "inputs": [
        {
          "indexed": true,
          "internalType": "address",
          "name": "addr",
          "type": "address"
        },
        {
          "indexed": false,
          "internalType": "uint256",
          "name": "timestamp",
          "type": "uint256"
        }
      ],
      "name": "Registered",
      "type": "event"
    },
    {
      "anonymous": false,
      "inputs": [
        {
          "indexed": false,
          "internalType": "bytes32",
          "name": "context",
          "type": "bytes32"
        },
        {
          "indexed": false,
          "internalType": "address",
          "name": "verifier",
          "type": "address"
        }
      ],
      "name": "SetBrightIdSettings",
      "type": "event"
    },
    {
      "anonymous": false,
      "inputs": [
        {
          "indexed": false,
          "internalType": "address",
          "name": "sponsor",
          "type": "address"
        }
      ],
      "name": "SponsorChanged",
      "type": "event"
    },
    {
      "inputs": [],
      "name": "brightIdSponsor",
      "outputs": [
        {
          "internalType": "contract BrightIdSponsor",
          "name": "",
          "type": "address"
        }
      ],
      "stateMutability": "view",
      "type": "function"
    },
    {
      "inputs": [],
      "name": "context",
      "outputs": [
        {
          "internalType": "bytes32",
          "name": "",
          "type": "bytes32"
        }
      ],
      "stateMutability": "view",
      "type": "function"
    },
    {
      "inputs": [
        {
          "internalType": "address",
          "name": "_user",
          "type": "address"
        }
      ],
      "name": "isVerifiedUser",
      "outputs": [
        {
          "internalType": "bool",
          "name": "",
          "type": "bool"
        }
      ],
      "stateMutability": "view",
      "type": "function"
    },
    {
      "inputs": [],
      "name": "owner",
      "outputs": [
        {
          "internalType": "address",
          "name": "",
          "type": "address"
        }
      ],
      "stateMutability": "view",
      "type": "function"
    },
    {
      "inputs": [
        {
          "internalType": "bytes32",
          "name": "_context",
          "type": "bytes32"
        },
        {
          "internalType": "address",
          "name": "_addr",
          "type": "address"
        },
        {
          "internalType": "bytes32",
          "name": "_verificationHash",
          "type": "bytes32"
        },
        {
          "internalType": "uint256",
          "name": "_timestamp",
          "type": "uint256"
        },
        {
          "internalType": "uint8",
          "name": "_v",
          "type": "uint8"
        },
        {
          "internalType": "bytes32",
          "name": "_r",
          "type": "bytes32"
        },
        {
          "internalType": "bytes32",
          "name": "_s",
          "type": "bytes32"
        }
      ],
      "name": "register",
      "outputs": [],
      "stateMutability": "nonpayable",
      "type": "function"
    },
    {
      "inputs": [],
      "name": "renounceOwnership",
      "outputs": [],
      "stateMutability": "nonpayable",
      "type": "function"
    },
    {
      "inputs": [
        {
          "internalType": "bytes32",
          "name": "_context",
          "type": "bytes32"
        },
        {
          "internalType": "address",
          "name": "_verifier",
          "type": "address"
        }
      ],
      "name": "setSettings",
      "outputs": [],
      "stateMutability": "nonpayable",
      "type": "function"
    },
    {
      "inputs": [
        {
          "internalType": "address",
          "name": "_sponsor",
          "type": "address"
        }
      ],
      "name": "setSponsor",
      "outputs": [],
      "stateMutability": "nonpayable",
      "type": "function"
    },
    {
      "inputs": [
        {
          "internalType": "address",
          "name": "addr",
          "type": "address"
        }
      ],
      "name": "sponsor",
      "outputs": [],
      "stateMutability": "nonpayable",
      "type": "function"
    },
    {
      "inputs": [
        {
          "internalType": "address",
          "name": "newOwner",
          "type": "address"
        }
      ],
      "name": "transferOwnership",
      "outputs": [],
      "stateMutability": "nonpayable",
      "type": "function"
    },
    {
      "inputs": [
        {
          "internalType": "address",
          "name": "",
          "type": "address"
        }
      ],
      "name": "verifications",
      "outputs": [
        {
          "internalType": "uint256",
          "name": "time",
          "type": "uint256"
        }
      ],
      "stateMutability": "view",
      "type": "function"
    },
    {
      "inputs": [],
      "name": "verifier",
      "outputs": [
        {
          "internalType": "address",
          "name": "",
          "type": "address"
        }
      ],
      "stateMutability": "view",
      "type": "function"
    }
  ],
  "bytecode": "0x608060405234801561001057600080fd5b50604051610a60380380610a6083398101604081905261002f916101a0565b338061005657604051631e4fbdf760e01b8152600060048201526024015b60405180910390fd5b61005f81610134565b5060408051808201909152601081526f24a72b20a624a2102b22a924a324a2a960811b60208201526001600160a01b0383166100ae5760405162461bcd60e51b815260040161004d91906101dc565b5060408051808201909152600f81526e24a72b20a624a21029a827a729a7a960891b60208201526001600160a01b0382166100fc5760405162461bcd60e51b815260040161004d91906101dc565b50600192909255600280546001600160a01b039283166001600160a01b0319918216179091556003805492909316911617905561022a565b600080546001600160a01b038381166001600160a01b0319831681178455604051919092169283917f8be0079c531659141344cd1fd0a4f28419497f9722a3daafe3b4186f6b6457e09190a35050565b80516001600160a01b038116811461019b57600080fd5b919050565b6000806000606084860312156101b557600080fd5b835192506101c560208501610184565b91506101d360408501610184565b90509250925092565b600060208083528351808285015260005b81811015610209578581018301518582016040015282016101ed565b506000604082860101526040601f19601f8301168501019250505092915050565b610827806102396000396000f3fe608060405234801561001057600080fd5b50600436106100b45760003560e01c8063715018a611610071578063715018a61461019e578063766c4f37146101a65780637be1f901146101b95780638da5cb5b146101cc578063d0496d6a146101dd578063f2fde38b146101e657600080fd5b8063080c98da146100b95780632b7ac3f3146100ec5780633da1c0c31461011757806348fde2951461016357806359753fb1146101785780636e35e6a41461018b575b600080fd5b6100d96100c73660046106c5565b60046020526000908152604090205481565b6040519081526020015b60405180910390f35b6002546100ff906001600160a01b031681565b6040516001600160a01b0390911681526020016100e3565b6101536101253660046106c5565b6001600160a01b03166000908152600460209081526040918290208251918201909252905490819052151590565b60405190151581526020016100e3565b6101766101713660046106e7565b6101f9565b005b6101766101863660046106c5565b6102ba565b6003546100ff906001600160a01b031681565b610176610364565b6101766101b43660046106c5565b610378565b6101766101c7366004610713565b6103da565b6000546001600160a01b03166100ff565b6100d960015481565b6101766101f43660046106c5565b6105ee565b61020161062c565b60408051808201909152601081526f24a72b20a624a2102b22a924a324a2a960811b60208201526001600160a01b0382166102585760405162461bcd60e51b815260040161024f919061077f565b60405180910390fd5b506001829055600280546001600160a01b0319166001600160a01b0383169081179091556040805184815260208101929092527feca6c30ee9122002d5201d3e96a6b071b79a1ed10950dda3730c970c79e0d850910160405180910390a15050565b6102c261062c565b60408051808201909152600f81526e24a72b20a624a21029a827a729a7a960891b60208201526001600160a01b03821661030f5760405162461bcd60e51b815260040161024f919061077f565b50600380546001600160a01b0319166001600160a01b0383169081179091556040519081527f3654ca7211e97c8221a546197d9931904737314c63260b2cae1896803967930f9060200160405180910390a150565b61036c61062c565b6103766000610659565b565b60035460405163766c4f3760e01b81526001600160a01b0383811660048301529091169063766c4f3790602401600060405180830381600087803b1580156103bf57600080fd5b505af11580156103d3573d6000803e3d6000fd5b5050505050565b86600154146040518060400160405280600f81526020016e125395905312510810d3d395115615608a1b815250906104255760405162461bcd60e51b815260040161024f919061077f565b508360046000886001600160a01b03166001600160a01b0316815260200190815260200160002060000154106040518060600160405280602481526020016107ce60249139906104885760405162461bcd60e51b815260040161024f919061077f565b5060408051602081018990526bffffffffffffffffffffffff19606089901b1691810191909152605481018690526074810185905260009060940160408051601f198184030181528282528051602091820120600080855291840180845281905260ff88169284019290925260608301869052608083018590529092509060019060a0016020604051602081039080840390855afa15801561052e573d6000803e3d6000fd5b505060408051601f19810151600254828401909352600e82526d1393d5081055551213d49256915160921b6020830152935091506001600160a01b0380841691161461058d5760405162461bcd60e51b815260040161024f919061077f565b506001600160a01b03881660008181526004602052604090819020889055517f6f3bf3fa84e4763a43b3d23f9d79be242d6d5c834941ff4c1111b67469e1150c906105db9089815260200190565b60405180910390a2505050505050505050565b6105f661062c565b6001600160a01b03811661062057604051631e4fbdf760e01b81526000600482015260240161024f565b61062981610659565b50565b6000546001600160a01b031633146103765760405163118cdaa760e01b815233600482015260240161024f565b600080546001600160a01b038381166001600160a01b0319831681178455604051919092169283917f8be0079c531659141344cd1fd0a4f28419497f9722a3daafe3b4186f6b6457e09190a35050565b80356001600160a01b03811681146106c057600080fd5b919050565b6000602082840312156106d757600080fd5b6106e0826106a9565b9392505050565b600080604083850312156106fa57600080fd5b8235915061070a602084016106a9565b90509250929050565b600080600080600080600060e0888a03121561072e57600080fd5b8735965061073e602089016106a9565b95506040880135945060608801359350608088013560ff8116811461076257600080fd5b9699959850939692959460a0840135945060c09093013592915050565b600060208083528351808285015260005b818110156107ac57858101830151858201604001528201610790565b506000604082860101526040601f19601f830116850101925050509291505056fe4e4557455220564552494649434154494f4e2052454749535445524544204245464f5245a26469706673582212201bfc5b4db0778447d2068949840ffe7d6c2f3bf6da7d74569b9df9b0db6e30b164736f6c63430008140033",
  "linkReferences": {},
  "deployedLinkReferences": {}
}