{
  "_format": "hh-sol-artifact-1",
  "contractName": "ClrFund",
  "sourceName": "contracts/ClrFund.sol",
  "abi": [
    {
      "inputs": [
        {
          "internalType": "address",
          "name": "target",
          "type": "address"
        }
      ],
      "name": "AddressEmptyCode",
      "type": "error"
    },
    {
      "inputs": [
        {
          "internalType": "address",
          "name": "account",
          "type": "address"
        }
      ],
      "name": "AddressInsufficientBalance",
      "type": "error"
    },
    {
      "inputs": [],
      "name": "AlreadyFinalized",
      "type": "error"
    },
    {
      "inputs": [],
      "name": "FailedInnerCall",
      "type": "error"
    },
    {
      "inputs": [],
      "name": "FundingSourceAlreadyAdded",
      "type": "error"
    },
    {
      "inputs": [],
      "name": "FundingSourceNotFound",
      "type": "error"
    },
    {
      "inputs": [],
      "name": "InvalidFundingRoundFactory",
      "type": "error"
    },
    {
      "inputs": [],
      "name": "InvalidMaciFactory",
      "type": "error"
    },
    {
      "inputs": [],
      "name": "MaxRecipientsNotSet",
      "type": "error"
    },
    {
      "inputs": [],
      "name": "NoCurrentRound",
      "type": "error"
    },
    {
      "inputs": [],
      "name": "NotAuthorized",
      "type": "error"
    },
    {
      "inputs": [],
      "name": "NotFinalized",
      "type": "error"
    },
    {
      "inputs": [],
      "name": "NotInitialized",
      "type": "error"
    },
    {
      "inputs": [],
      "name": "NotOwnerOfMaciFactory",
      "type": "error"
    },
    {
      "inputs": [],
      "name": "RecipientRegistryNotSet",
      "type": "error"
    },
    {
      "inputs": [
        {
          "internalType": "address",
          "name": "token",
          "type": "address"
        }
      ],
      "name": "SafeERC20FailedOperation",
      "type": "error"
    },
    {
      "anonymous": false,
      "inputs": [
        {
          "indexed": false,
          "internalType": "address",
          "name": "_coordinator",
          "type": "address"
        }
      ],
      "name": "CoordinatorChanged",
      "type": "event"
    },
    {
      "anonymous": false,
      "inputs": [
        {
          "indexed": false,
          "internalType": "address",
          "name": "_roundFactory",
          "type": "address"
        }
      ],
      "name": "FundingRoundFactoryChanged",
      "type": "event"
    },
    {
      "anonymous": false,
      "inputs": [
        {
          "indexed": false,
          "internalType": "address",
          "name": "_template",
          "type": "address"
        }
      ],
      "name": "FundingRoundTemplateChanged",
      "type": "event"
    },
    {
      "anonymous": false,
      "inputs": [
        {
          "indexed": false,
          "internalType": "address",
          "name": "_source",
          "type": "address"
        }
      ],
      "name": "FundingSourceAdded",
      "type": "event"
    },
    {
      "anonymous": false,
      "inputs": [
        {
          "indexed": false,
          "internalType": "address",
          "name": "_source",
          "type": "address"
        }
      ],
      "name": "FundingSourceRemoved",
      "type": "event"
    },
    {
      "anonymous": false,
      "inputs": [],
      "name": "Initialized",
      "type": "event"
    },
    {
      "anonymous": false,
      "inputs": [
        {
          "indexed": false,
          "internalType": "address",
          "name": "_maciFactory",
          "type": "address"
        }
      ],
      "name": "MaciFactoryChanged",
      "type": "event"
    },
    {
      "anonymous": false,
      "inputs": [
        {
          "indexed": true,
          "internalType": "address",
          "name": "previousOwner",
          "type": "address"
        },
        {
          "indexed": true,
          "internalType": "address",
          "name": "newOwner",
          "type": "address"
        }
      ],
      "name": "OwnershipTransferred",
      "type": "event"
    },
    {
      "anonymous": false,
      "inputs": [
        {
          "indexed": false,
          "internalType": "address",
          "name": "_recipientRegistry",
          "type": "address"
        }
      ],
      "name": "RecipientRegistryChanged",
      "type": "event"
    },
    {
      "anonymous": false,
      "inputs": [
        {
          "indexed": false,
          "internalType": "address",
          "name": "_round",
          "type": "address"
        }
      ],
      "name": "RoundFinalized",
      "type": "event"
    },
    {
      "anonymous": false,
      "inputs": [
        {
          "indexed": false,
          "internalType": "address",
          "name": "_round",
          "type": "address"
        }
      ],
      "name": "RoundStarted",
      "type": "event"
    },
    {
      "anonymous": false,
      "inputs": [
        {
          "indexed": false,
          "internalType": "address",
          "name": "_token",
          "type": "address"
        }
      ],
      "name": "TokenChanged",
      "type": "event"
    },
    {
      "anonymous": false,
      "inputs": [
        {
          "indexed": false,
          "internalType": "address",
          "name": "_userRegistry",
          "type": "address"
        }
      ],
      "name": "UserRegistryChanged",
      "type": "event"
    },
    {
      "inputs": [],
      "name": "MESSAGE_DATA_LENGTH",
      "outputs": [
        {
          "internalType": "uint8",
          "name": "",
          "type": "uint8"
        }
      ],
      "stateMutability": "view",
      "type": "function"
    },
    {
      "inputs": [
        {
          "internalType": "address",
          "name": "_source",
          "type": "address"
        }
      ],
      "name": "addFundingSource",
      "outputs": [],
      "stateMutability": "nonpayable",
      "type": "function"
    },
    {
      "inputs": [],
      "name": "cancelCurrentRound",
      "outputs": [],
      "stateMutability": "nonpayable",
      "type": "function"
    },
    {
      "inputs": [],
      "name": "coordinator",
      "outputs": [
        {
          "internalType": "address",
          "name": "",
          "type": "address"
        }
      ],
      "stateMutability": "view",
      "type": "function"
    },
    {
      "inputs": [],
      "name": "coordinatorPubKey",
      "outputs": [
        {
          "internalType": "uint256",
          "name": "x",
          "type": "uint256"
        },
        {
          "internalType": "uint256",
          "name": "y",
          "type": "uint256"
        }
      ],
      "stateMutability": "view",
      "type": "function"
    },
    {
      "inputs": [],
      "name": "coordinatorQuit",
      "outputs": [],
      "stateMutability": "nonpayable",
      "type": "function"
    },
    {
      "inputs": [
        {
          "internalType": "uint256",
          "name": "duration",
          "type": "uint256"
        }
      ],
      "name": "deployNewRound",
      "outputs": [],
      "stateMutability": "nonpayable",
      "type": "function"
    },
    {
      "inputs": [],
      "name": "getCurrentRound",
      "outputs": [
        {
          "internalType": "contract IFundingRound",
          "name": "_currentRound",
          "type": "address"
        }
      ],
      "stateMutability": "view",
      "type": "function"
    },
    {
      "inputs": [
        {
          "internalType": "contract ERC20",
          "name": "token",
          "type": "address"
        }
      ],
      "name": "getMatchingFunds",
      "outputs": [
        {
          "internalType": "uint256",
          "name": "",
          "type": "uint256"
        }
      ],
      "stateMutability": "view",
      "type": "function"
    },
    {
      "inputs": [
        {
          "internalType": "address",
          "name": "_maciFactory",
          "type": "address"
        },
        {
          "internalType": "address",
          "name": "_roundFactory",
          "type": "address"
        }
      ],
      "name": "init",
      "outputs": [],
      "stateMutability": "nonpayable",
      "type": "function"
    },
    {
      "inputs": [],
      "name": "maciFactory",
      "outputs": [
        {
          "internalType": "contract IMACIFactory",
          "name": "",
          "type": "address"
        }
      ],
      "stateMutability": "view",
      "type": "function"
    },
    {
      "inputs": [],
      "name": "nativeToken",
      "outputs": [
        {
          "internalType": "contract ERC20",
          "name": "",
          "type": "address"
        }
      ],
      "stateMutability": "view",
      "type": "function"
    },
    {
      "inputs": [],
      "name": "owner",
      "outputs": [
        {
          "internalType": "address",
          "name": "",
          "type": "address"
        }
      ],
      "stateMutability": "view",
      "type": "function"
    },
    {
      "inputs": [],
      "name": "recipientRegistry",
      "outputs": [
        {
          "internalType": "contract IRecipientRegistry",
          "name": "",
          "type": "address"
        }
      ],
      "stateMutability": "view",
      "type": "function"
    },
    {
      "inputs": [
        {
          "internalType": "address",
          "name": "_source",
          "type": "address"
        }
      ],
      "name": "removeFundingSource",
      "outputs": [],
      "stateMutability": "nonpayable",
      "type": "function"
    },
    {
      "inputs": [],
      "name": "renounceOwnership",
      "outputs": [],
      "stateMutability": "nonpayable",
      "type": "function"
    },
    {
      "inputs": [],
      "name": "roundFactory",
      "outputs": [
        {
          "internalType": "contract IFundingRoundFactory",
          "name": "",
          "type": "address"
        }
      ],
      "stateMutability": "view",
      "type": "function"
    },
    {
      "inputs": [
        {
          "internalType": "address",
          "name": "_coordinator",
          "type": "address"
        },
        {
          "components": [
            {
              "internalType": "uint256",
              "name": "x",
              "type": "uint256"
            },
            {
              "internalType": "uint256",
              "name": "y",
              "type": "uint256"
            }
          ],
          "internalType": "struct DomainObjs.PubKey",
          "name": "_coordinatorPubKey",
          "type": "tuple"
        }
      ],
      "name": "setCoordinator",
      "outputs": [],
      "stateMutability": "nonpayable",
      "type": "function"
    },
    {
      "inputs": [
        {
          "internalType": "address",
          "name": "_roundFactory",
          "type": "address"
        }
      ],
      "name": "setFundingRoundFactory",
      "outputs": [],
      "stateMutability": "nonpayable",
      "type": "function"
    },
    {
      "inputs": [
        {
          "internalType": "address",
          "name": "_maciFactory",
          "type": "address"
        }
      ],
      "name": "setMaciFactory",
      "outputs": [],
      "stateMutability": "nonpayable",
      "type": "function"
    },
    {
      "inputs": [
        {
          "internalType": "contract IRecipientRegistry",
          "name": "_recipientRegistry",
          "type": "address"
        }
      ],
      "name": "setRecipientRegistry",
      "outputs": [],
      "stateMutability": "nonpayable",
      "type": "function"
    },
    {
      "inputs": [
        {
          "internalType": "address",
          "name": "_token",
          "type": "address"
        }
      ],
      "name": "setToken",
      "outputs": [],
      "stateMutability": "nonpayable",
      "type": "function"
    },
    {
      "inputs": [
        {
          "internalType": "contract IUserRegistry",
          "name": "_userRegistry",
          "type": "address"
        }
      ],
      "name": "setUserRegistry",
      "outputs": [],
      "stateMutability": "nonpayable",
      "type": "function"
    },
    {
      "inputs": [
        {
          "internalType": "uint256",
          "name": "_totalSpent",
          "type": "uint256"
        },
        {
          "internalType": "uint256",
          "name": "_totalSpentSalt",
          "type": "uint256"
        },
        {
          "internalType": "uint256",
          "name": "_newResultCommitment",
          "type": "uint256"
        },
        {
          "internalType": "uint256",
          "name": "_perVOSpentVoiceCreditsHash",
          "type": "uint256"
        }
      ],
      "name": "transferMatchingFunds",
      "outputs": [],
      "stateMutability": "nonpayable",
      "type": "function"
    },
    {
      "inputs": [
        {
          "internalType": "address",
          "name": "newOwner",
          "type": "address"
        }
      ],
      "name": "transferOwnership",
      "outputs": [],
      "stateMutability": "nonpayable",
      "type": "function"
    },
    {
      "inputs": [],
      "name": "userRegistry",
      "outputs": [
        {
          "internalType": "contract IUserRegistry",
          "name": "",
          "type": "address"
        }
      ],
      "stateMutability": "view",
      "type": "function"
    }
  ],
  "bytecode": "0x608060405234801561001057600080fd5b50611ee6806100206000396000f3fe608060405234801561001057600080fd5b506004361061018d5760003560e01c80638bb9dcc1116100de578063ce07d1c711610097578063e1758bd811610071578063e1758bd81461034a578063f09a40161461035d578063f2fde38b14610370578063f6a4a5aa1461038357600080fd5b8063ce07d1c714610311578063db8b17f214610324578063dc17a6f81461033757600080fd5b80638bb9dcc1146102b75780638da5cb5b146102ca578063a32bf597146102db578063aef84a3a146102e3578063b0d5451b146102eb578063c9e20dce146102fe57600080fd5b80635485868a1161014b578063683f3dc311610125578063683f3dc31461026f5780636a125fac14610289578063715018a61461029c578063792e17a6146102a457600080fd5b80635485868a146102365780635a89e832146102495780635c7460d61461025c57600080fd5b80626a87de146101925780630a009097146101b8578063144fa6d7146101e357806325670bc0146101f85780632cc165b01461020057806331e766a514610213575b600080fd5b6101a56101a0366004611c01565b610396565b6040519081526020015b60405180910390f35b6065546101cb906001600160a01b031681565b6040516001600160a01b0390911681526020016101af565b6101f66101f1366004611c01565b61054b565b005b6101f66105d3565b6101f661020e366004611c01565b610777565b606a54606b54610221919082565b604080519283526020830191909152016101af565b606f546101cb906001600160a01b031681565b6101f6610257366004611c1e565b6107ad565b6068546101cb906001600160a01b031681565b610277600a81565b60405160ff90911681526020016101af565b6101f6610297366004611c01565b610b39565b6101f6610bd1565b6067546101cb906001600160a01b031681565b6101f66102c5366004611c37565b610c07565b6033546001600160a01b03166101cb565b6101cb610c8b565b6101f6610cd7565b6101f66102f9366004611c01565b610e23565b6069546101cb906001600160a01b031681565b6101f661031f366004611c01565b610e9b565b6101f6610332366004611c01565b610ece565b6101f6610345366004611cba565b610f5e565b6066546101cb906001600160a01b031681565b6101f661036b366004611cec565b61128f565b6101f661037e366004611c01565b6112d6565b6101f6610391366004611c01565b61136e565b6040516370a0823160e01b815230600482015260009081906001600160a01b038416906370a0823190602401602060405180830381865afa1580156103df573d6000803e3d6000fd5b505050506040513d601f19601f820116820180604052508101906104039190611d25565b905060005b610412606c61157e565b811015610544576000610426606c8361158e565b604051636eb1769f60e11b81526001600160a01b03808316600483015230602483015291925060009187169063dd62ed3e90604401602060405180830381865afa158015610478573d6000803e3d6000fd5b505050506040513d601f19601f8201168201806040525081019061049c9190611d25565b6040516370a0823160e01b81526001600160a01b0384811660048301529192506000918816906370a0823190602401602060405180830381865afa1580156104e8573d6000803e3d6000fd5b505050506040513d601f19601f8201168201806040525081019061050c9190611d25565b9050600081831061051d578161051f565b825b905061052b8187611d54565b955050505050808061053c90611d67565b915050610408565b5092915050565b6033546001600160a01b0316331461057e5760405162461bcd60e51b815260040161057590611d80565b60405180910390fd5b606680546001600160a01b0319166001600160a01b0383169081179091556040519081527f5d108ca248943e98e1886bbc2c38beda701271994a14354258a11692b81b73cf906020015b60405180910390a150565b6065546001600160a01b031633146105fe5760405163ea8e4eb560e01b815260040160405180910390fd5b606580546001600160a01b03191690556040805180820190915260008082526020909101819052606a819055606b819055610637610c8b565b90506001600160a01b038116158015906106b05750806001600160a01b0316638d4e40836040518163ffffffff1660e01b8152600401602060405180830381865afa15801561068a573d6000803e3d6000fd5b505050506040513d601f19601f820116820180604052508101906106ae9190611db5565b155b1561074657806001600160a01b031663ea8a1af06040518163ffffffff1660e01b8152600401600060405180830381600087803b1580156106f057600080fd5b505af1158015610704573d6000803e3d6000fd5b50506040516001600160a01b03841681527f91c28ff2f868862c2dd3ad0f544e3bb1384551a381a77ce1d2feefbcc97405489250602001905060405180910390a15b604051600081527f31b13bedc414c5baaa451bba6488bb67f734117618000b1efc117c19ff3b5789906020016105c8565b6033546001600160a01b031633146107a15760405162461bcd60e51b815260040161057590611d80565b6107aa816115a1565b50565b6033546001600160a01b031633146107d75760405162461bcd60e51b815260040161057590611d80565b6067546001600160a01b031661080057604051631d20aa8560e31b815260040160405180910390fd5b606760009054906101000a90046001600160a01b03166001600160a01b03166388a130726040518163ffffffff1660e01b8152600401602060405180830381865afa158015610853573d6000803e3d6000fd5b505050506040513d601f19601f820116820180604052508101906108779190611d25565b60000361089657604051627b794160e01b815260040160405180910390fd5b60006108a0610c8b565b90506001600160a01b038116158015906109195750806001600160a01b0316638d4e40836040518163ffffffff1660e01b8152600401602060405180830381865afa1580156108f3573d6000803e3d6000fd5b505050506040513d601f19601f820116820180604052508101906109179190611db5565b155b1561093757604051630df706ad60e11b815260040160405180910390fd5b6069546001600160a01b03166109605760405163070402ab60e41b815260040160405180910390fd5b60695460675460408051634450983960e11b815290516001600160a01b039384169363148ec9ab9316916388a130729160048083019260209291908290030181865afa1580156109b4573d6000803e3d6000fd5b505050506040513d601f19601f820116820180604052508101906109d89190611d25565b6040518263ffffffff1660e01b81526004016109f691815260200190565b6020604051808303816000875af1158015610a15573d6000803e3d6000fd5b505050506040513d601f19601f82011682018060405250810190610a399190611db5565b50606f5460405163df02995d60e01b8152600481018490523060248201526000916001600160a01b03169063df02995d906044016020604051808303816000875af1158015610a8c573d6000803e3d6000fd5b505050506040513d601f19601f82011682018060405250810190610ab09190611dd7565b606e80546001810182556000919091527f9930d9ff0dee0ef5ca2f7710ea66b8f84dd0f5f5351ecffe72b952cd9db7142a0180546001600160a01b0319166001600160a01b0383169081179091556040519081529091507f732000f563c53d8ed6644b9ed0b8c4400e2a0b2ed4af5317fa7aa8867b5f51c69060200160405180910390a1505050565b6033546001600160a01b03163314610b635760405162461bcd60e51b815260040161057590611d80565b6000610b70606c83611616565b905080610b9057604051630ba4734f60e11b815260040160405180910390fd5b6040516001600160a01b03831681527f0b8cdef5d00c647a3fd9ddc1ebe4ce9697195cc3cfc5d9f3fb6c377a88526669906020015b60405180910390a15050565b6033546001600160a01b03163314610bfb5760405162461bcd60e51b815260040161057590611d80565b610c05600061162b565b565b6033546001600160a01b03163314610c315760405162461bcd60e51b815260040161057590611d80565b606580546001600160a01b0319166001600160a01b0384169081179091558151606a55602080830151606b556040519182527f31b13bedc414c5baaa451bba6488bb67f734117618000b1efc117c19ff3b57899101610bc5565b606e546000908103610c9d5750600090565b606e8054610cad90600190611df4565b81548110610cbd57610cbd611e07565b6000918252602090912001546001600160a01b0316919050565b6033546001600160a01b03163314610d015760405162461bcd60e51b815260040161057590611d80565b6000610d0b610c8b565b9050610d168161167d565b806001600160a01b0316638d4e40836040518163ffffffff1660e01b8152600401602060405180830381865afa158015610d54573d6000803e3d6000fd5b505050506040513d601f19601f82011682018060405250810190610d789190611db5565b15610d965760405163475a253560e01b815260040160405180910390fd5b806001600160a01b031663ea8a1af06040518163ffffffff1660e01b8152600401600060405180830381600087803b158015610dd157600080fd5b505af1158015610de5573d6000803e3d6000fd5b50506040516001600160a01b03841681527f91c28ff2f868862c2dd3ad0f544e3bb1384551a381a77ce1d2feefbcc9740548925060200190506105c8565b6033546001600160a01b03163314610e4d5760405162461bcd60e51b815260040161057590611d80565b606880546001600160a01b0319166001600160a01b0383169081179091556040519081527f9661b62fd1926a06ebf8852f2b7a581d6ec67a57b2bbd9469ad392219f07857b906020016105c8565b6033546001600160a01b03163314610ec55760405162461bcd60e51b815260040161057590611d80565b6107aa816116a4565b6033546001600160a01b03163314610ef85760405162461bcd60e51b815260040161057590611d80565b6000610f05606c83611719565b905080610f255760405163b93f1b6b60e01b815260040160405180910390fd5b6040516001600160a01b03831681527f27b36dd1ac1abb8494cac9d14cf1f3d791f25e8ed3569604392e47221c06ec9f90602001610bc5565b6033546001600160a01b03163314610f885760405162461bcd60e51b815260040161057590611d80565b6000610f92610c8b565b9050610f9d8161167d565b6000816001600160a01b031663e1758bd86040518163ffffffff1660e01b8152600401602060405180830381865afa158015610fdd573d6000803e3d6000fd5b505050506040513d601f19601f820116820180604052508101906110019190611dd7565b6040516370a0823160e01b81523060048201529091506000906001600160a01b038316906370a0823190602401602060405180830381865afa15801561104b573d6000803e3d6000fd5b505050506040513d601f19601f8201168201806040525081019061106f9190611d25565b9050801561108b5761108b6001600160a01b038316848361172e565b60005b611098606c61157e565b8110156111d95760006110ac606c8361158e565b604051636eb1769f60e11b81526001600160a01b03808316600483015230602483015291925060009186169063dd62ed3e90604401602060405180830381865afa1580156110fe573d6000803e3d6000fd5b505050506040513d601f19601f820116820180604052508101906111229190611d25565b6040516370a0823160e01b81526001600160a01b0384811660048301529192506000918716906370a0823190602401602060405180830381865afa15801561116e573d6000803e3d6000fd5b505050506040513d601f19601f820116820180604052508101906111929190611d25565b905060008183106111a357816111a5565b825b905080156111c2576111c26001600160a01b038816858a84611792565b5050505080806111d190611d67565b91505061108e565b506040516352abcbcf60e01b8152600481018890526024810187905260448101869052606481018590526001600160a01b038416906352abcbcf90608401600060405180830381600087803b15801561123157600080fd5b505af1158015611245573d6000803e3d6000fd5b50506040516001600160a01b03861681527f91c28ff2f868862c2dd3ad0f544e3bb1384551a381a77ce1d2feefbcc97405489250602001905060405180910390a150505050505050565b6112976117d1565b6112a0826116a4565b6112a9816115a1565b6040517f5daa87a0e9463431830481fd4b6e3403442dfb9a12b9c07597e9f61d50b633c890600090a15050565b6033546001600160a01b031633146113005760405162461bcd60e51b815260040161057590611d80565b6001600160a01b0381166113655760405162461bcd60e51b815260206004820152602660248201527f4f776e61626c653a206e6577206f776e657220697320746865207a65726f206160448201526564647265737360d01b6064820152608401610575565b6107aa8161162b565b6033546001600160a01b031633146113985760405162461bcd60e51b815260040161057590611d80565b6067546001600160a01b03166113c157604051631d20aa8560e31b815260040160405180910390fd5b606760009054906101000a90046001600160a01b03166001600160a01b03166388a130726040518163ffffffff1660e01b8152600401602060405180830381865afa158015611414573d6000803e3d6000fd5b505050506040513d601f19601f820116820180604052508101906114389190611d25565b60000361145757604051627b794160e01b815260040160405180910390fd5b606980546001600160a01b0319166001600160a01b0383811691821790925560675460408051634450983960e11b81529051929363148ec9ab939216916388a13072916004808201926020929091908290030181865afa1580156114bf573d6000803e3d6000fd5b505050506040513d601f19601f820116820180604052508101906114e39190611d25565b6040518263ffffffff1660e01b815260040161150191815260200190565b6020604051808303816000875af1158015611520573d6000803e3d6000fd5b505050506040513d601f19601f820116820180604052508101906115449190611db5565b506040516001600160a01b03821681527fcc87f713a5cbb5cf26f6f31b9b3ec01a7fe93d148f0b2d1bbf995204341ec374906020016105c8565b6000611588825490565b92915050565b600061159a838361184c565b9392505050565b6001600160a01b0381166115c857604051637b85584560e01b815260040160405180910390fd5b606f80546001600160a01b0319166001600160a01b0383169081179091556040519081527fa272aad7d67a4a0d8b3f157c75066a19cbf55cf5f6d500a31b6aa1dc3040931d906020016105c8565b600061159a836001600160a01b038416611876565b603380546001600160a01b038381166001600160a01b0319831681179093556040519116919082907f8be0079c531659141344cd1fd0a4f28419497f9722a3daafe3b4186f6b6457e090600090a35050565b6001600160a01b0381166107aa5760405163054db38960e31b815260040160405180910390fd5b6001600160a01b0381166116cb57604051631d20aa8560e31b815260040160405180910390fd5b606780546001600160a01b0319166001600160a01b0383169081179091556040519081527fd0d8211b3c780ec8f4e5d8355277b287ae259c90363f7b658a522475a799cf92906020016105c8565b600061159a836001600160a01b0384166118c5565b6040516001600160a01b0383811660248301526044820183905261178d91859182169063a9059cbb906064015b604051602081830303815290604052915060e01b6020820180516001600160e01b0383818316178352505050506119b8565b505050565b6040516001600160a01b0384811660248301528381166044830152606482018390526117cb9186918216906323b872dd9060840161175b565b50505050565b600054610100900460ff16806117ea575060005460ff16155b6118065760405162461bcd60e51b815260040161057590611e1d565b600054610100900460ff16158015611828576000805461ffff19166101011790555b611830611a1b565b611838611a85565b80156107aa576000805461ff001916905550565b600082600001828154811061186357611863611e07565b9060005260206000200154905092915050565b60008181526001830160205260408120546118bd57508154600181810184556000848152602080822090930184905584548482528286019093526040902091909155611588565b506000611588565b600081815260018301602052604081205480156119ae5760006118e9600183611df4565b85549091506000906118fd90600190611df4565b905080821461196257600086600001828154811061191d5761191d611e07565b906000526020600020015490508087600001848154811061194057611940611e07565b6000918252602080832090910192909255918252600188019052604090208390555b855486908061197357611973611e6b565b600190038181906000526020600020016000905590558560010160008681526020019081526020016000206000905560019350505050611588565b6000915050611588565b60006119cd6001600160a01b03841683611ae5565b905080516000141580156119f25750808060200190518101906119f09190611db5565b155b1561178d57604051635274afe760e01b81526001600160a01b0384166004820152602401610575565b600054610100900460ff1680611a34575060005460ff16155b611a505760405162461bcd60e51b815260040161057590611e1d565b600054610100900460ff16158015611838576000805461ffff191661010117905580156107aa576000805461ff001916905550565b600054610100900460ff1680611a9e575060005460ff16155b611aba5760405162461bcd60e51b815260040161057590611e1d565b600054610100900460ff16158015611adc576000805461ffff19166101011790555b6118383361162b565b606061159a8383600084600080856001600160a01b03168486604051611b0b9190611e81565b60006040518083038185875af1925050503d8060008114611b48576040519150601f19603f3d011682016040523d82523d6000602084013e611b4d565b606091505b5091509150611b5d868383611b67565b9695505050505050565b606082611b7c57611b7782611bc3565b61159a565b8151158015611b9357506001600160a01b0384163b155b15611bbc57604051639996b31560e01b81526001600160a01b0385166004820152602401610575565b508061159a565b805115611bd35780518082602001fd5b604051630a12f52160e11b815260040160405180910390fd5b6001600160a01b03811681146107aa57600080fd5b600060208284031215611c1357600080fd5b813561159a81611bec565b600060208284031215611c3057600080fd5b5035919050565b6000808284036060811215611c4b57600080fd5b8335611c5681611bec565b92506040601f1982011215611c6a57600080fd5b506040516040810181811067ffffffffffffffff82111715611c9c57634e487b7160e01b600052604160045260246000fd5b60409081526020858101358352940135938101939093525092909150565b60008060008060808587031215611cd057600080fd5b5050823594602084013594506040840135936060013592509050565b60008060408385031215611cff57600080fd5b8235611d0a81611bec565b91506020830135611d1a81611bec565b809150509250929050565b600060208284031215611d3757600080fd5b5051919050565b634e487b7160e01b600052601160045260246000fd5b8082018082111561158857611588611d3e565b600060018201611d7957611d79611d3e565b5060010190565b6020808252818101527f4f776e61626c653a2063616c6c6572206973206e6f7420746865206f776e6572604082015260600190565b600060208284031215611dc757600080fd5b8151801515811461159a57600080fd5b600060208284031215611de957600080fd5b815161159a81611bec565b8181038181111561158857611588611d3e565b634e487b7160e01b600052603260045260246000fd5b6020808252602e908201527f496e697469616c697a61626c653a20636f6e747261637420697320616c72656160408201526d191e481a5b9a5d1a585b1a5e995960921b606082015260800190565b634e487b7160e01b600052603160045260246000fd5b6000825160005b81811015611ea25760208186018101518583015201611e88565b50600092019182525091905056fea2646970667358221220cf5678bad3dafff661fc09d3a0270f6fca4ada927f6dd26256484d0ab98b660564736f6c63430008140033",
  "linkReferences": {},
  "deployedLinkReferences": {}
}