{
  "_format": "hh-sol-artifact-1",
  "contractName": "FundingRound",
  "sourceName": "contracts/FundingRound.sol",
  "abi": [
    {
      "inputs": [
        {
          "internalType": "contract ERC20",
          "name": "_nativeToken",
          "type": "address"
        },
        {
          "internalType": "contract IUserRegistry",
          "name": "_userRegistry",
          "type": "address"
        },
        {
          "internalType": "contract IRecipientRegistry",
          "name": "_recipientRegistry",
          "type": "address"
        },
        {
          "internalType": "address",
          "name": "_coordinator",
          "type": "address"
        }
      ],
      "stateMutability": "nonpayable",
      "type": "constructor"
    },
    {
      "inputs": [
        {
          "internalType": "address",
          "name": "target",
          "type": "address"
        }
      ],
      "name": "AddressEmptyCode",
      "type": "error"
    },
    {
      "inputs": [
        {
          "internalType": "address",
          "name": "account",
          "type": "address"
        }
      ],
      "name": "AddressInsufficientBalance",
      "type": "error"
    },
    {
      "inputs": [],
      "name": "AlreadyContributed",
      "type": "error"
    },
    {
      "inputs": [],
      "name": "ContributionAmountIsZero",
      "type": "error"
    },
    {
      "inputs": [],
      "name": "ContributionAmountTooLarge",
      "type": "error"
    },
    {
      "inputs": [],
      "name": "EmptyTallyHash",
      "type": "error"
    },
    {
      "inputs": [],
      "name": "FailedInnerCall",
      "type": "error"
    },
    {
      "inputs": [],
      "name": "FundsAlreadyClaimed",
      "type": "error"
    },
    {
      "inputs": [
        {
          "internalType": "uint256",
          "name": "total",
          "type": "uint256"
        },
        {
          "internalType": "uint256",
          "name": "actual",
          "type": "uint256"
        }
      ],
      "name": "IncompleteTallyResults",
      "type": "error"
    },
    {
      "inputs": [],
      "name": "IncorrectPerVOSpentVoiceCredits",
      "type": "error"
    },
    {
      "inputs": [],
      "name": "IncorrectSpentVoiceCredits",
      "type": "error"
    },
    {
      "inputs": [],
      "name": "IncorrectTallyResult",
      "type": "error"
    },
    {
      "inputs": [],
      "name": "InvalidBudget",
      "type": "error"
    },
    {
      "inputs": [],
      "name": "InvalidCoordinator",
      "type": "error"
    },
    {
      "inputs": [],
      "name": "InvalidMaci",
      "type": "error"
    },
    {
      "inputs": [],
      "name": "InvalidMessageProcessor",
      "type": "error"
    },
    {
      "inputs": [],
      "name": "InvalidNativeToken",
      "type": "error"
    },
    {
      "inputs": [],
      "name": "InvalidPoll",
      "type": "error"
    },
    {
      "inputs": [],
      "name": "InvalidRecipientRegistry",
      "type": "error"
    },
    {
      "inputs": [],
      "name": "InvalidTally",
      "type": "error"
    },
    {
      "inputs": [],
      "name": "InvalidUserRegistry",
      "type": "error"
    },
    {
      "inputs": [],
      "name": "MaciAlreadySet",
      "type": "error"
    },
    {
      "inputs": [],
      "name": "MaciNotSet",
      "type": "error"
    },
    {
      "inputs": [],
      "name": "NoProjectHasMoreThanOneVote",
      "type": "error"
    },
    {
      "inputs": [],
      "name": "NoSignUps",
      "type": "error"
    },
    {
      "inputs": [],
      "name": "NoVoiceCredits",
      "type": "error"
    },
    {
      "inputs": [],
      "name": "NoVotes",
      "type": "error"
    },
    {
      "inputs": [],
      "name": "NotCoordinator",
      "type": "error"
    },
    {
      "inputs": [],
      "name": "NothingToWithdraw",
      "type": "error"
    },
    {
      "inputs": [],
      "name": "OnlyMaciCanRegisterVoters",
      "type": "error"
    },
    {
      "inputs": [
        {
          "internalType": "address",
          "name": "owner",
          "type": "address"
        }
      ],
      "name": "OwnableInvalidOwner",
      "type": "error"
    },
    {
      "inputs": [
        {
          "internalType": "address",
          "name": "account",
          "type": "address"
        }
      ],
      "name": "OwnableUnauthorizedAccount",
      "type": "error"
    },
    {
      "inputs": [],
      "name": "PollNotSet",
      "type": "error"
    },
    {
      "inputs": [],
      "name": "RoundAlreadyFinalized",
      "type": "error"
    },
    {
      "inputs": [],
      "name": "RoundCancelled",
      "type": "error"
    },
    {
      "inputs": [],
      "name": "RoundNotCancelled",
      "type": "error"
    },
    {
      "inputs": [],
      "name": "RoundNotFinalized",
      "type": "error"
    },
    {
      "inputs": [
        {
          "internalType": "address",
          "name": "token",
          "type": "address"
        }
      ],
      "name": "SafeERC20FailedOperation",
      "type": "error"
    },
    {
      "inputs": [],
      "name": "TallyHashNotPublished",
      "type": "error"
    },
    {
      "inputs": [
        {
          "internalType": "address",
          "name": "expected",
          "type": "address"
        },
        {
          "internalType": "address",
          "name": "actual",
          "type": "address"
        }
      ],
      "name": "UnexpectedPollAddress",
      "type": "error"
    },
    {
      "inputs": [],
      "name": "UserAlreadyRegistered",
      "type": "error"
    },
    {
      "inputs": [],
      "name": "UserHasNotContributed",
      "type": "error"
    },
    {
      "inputs": [],
      "name": "UserNotVerified",
      "type": "error"
    },
    {
      "inputs": [],
      "name": "VoteResultsAlreadyVerified",
      "type": "error"
    },
    {
      "inputs": [],
      "name": "VotesNotTallied",
      "type": "error"
    },
    {
      "inputs": [],
      "name": "VotingPeriodNotPassed",
      "type": "error"
    },
    {
      "anonymous": false,
      "inputs": [
        {
          "indexed": true,
          "internalType": "address",
          "name": "_sender",
          "type": "address"
        },
        {
          "indexed": false,
          "internalType": "uint256",
          "name": "_amount",
          "type": "uint256"
        }
      ],
      "name": "Contribution",
      "type": "event"
    },
    {
      "anonymous": false,
      "inputs": [
        {
          "indexed": true,
          "internalType": "address",
          "name": "_contributor",
          "type": "address"
        }
      ],
      "name": "ContributionWithdrawn",
      "type": "event"
    },
    {
      "anonymous": false,
      "inputs": [
        {
          "indexed": true,
          "internalType": "uint256",
          "name": "_voteOptionIndex",
          "type": "uint256"
        },
        {
          "indexed": true,
          "internalType": "address",
          "name": "_recipient",
          "type": "address"
        },
        {
          "indexed": false,
          "internalType": "uint256",
          "name": "_amount",
          "type": "uint256"
        }
      ],
      "name": "FundsClaimed",
      "type": "event"
    },
    {
      "anonymous": false,
      "inputs": [
        {
          "indexed": true,
          "internalType": "address",
          "name": "previousOwner",
          "type": "address"
        },
        {
          "indexed": true,
          "internalType": "address",
          "name": "newOwner",
          "type": "address"
        }
      ],
      "name": "OwnershipTransferred",
      "type": "event"
    },
    {
      "anonymous": false,
      "inputs": [
        {
          "indexed": true,
          "internalType": "address",
          "name": "_poll",
          "type": "address"
        }
      ],
      "name": "PollSet",
      "type": "event"
    },
    {
      "anonymous": false,
      "inputs": [
        {
          "indexed": false,
          "internalType": "string",
          "name": "_tallyHash",
          "type": "string"
        }
      ],
      "name": "TallyPublished",
      "type": "event"
    },
    {
      "anonymous": false,
      "inputs": [
        {
          "indexed": true,
          "internalType": "uint256",
          "name": "_voteOptionIndex",
          "type": "uint256"
        },
        {
          "indexed": false,
          "internalType": "uint256",
          "name": "_tally",
          "type": "uint256"
        }
      ],
      "name": "TallyResultsAdded",
      "type": "event"
    },
    {
      "anonymous": false,
      "inputs": [
        {
          "indexed": true,
          "internalType": "address",
          "name": "_tally",
          "type": "address"
        }
      ],
      "name": "TallySet",
      "type": "event"
    },
    {
      "anonymous": false,
      "inputs": [
        {
          "indexed": true,
          "internalType": "address",
          "name": "_contributor",
          "type": "address"
        }
      ],
      "name": "Voted",
      "type": "event"
    },
    {
      "inputs": [],
      "name": "MESSAGE_DATA_LENGTH",
      "outputs": [
        {
          "internalType": "uint8",
          "name": "",
          "type": "uint8"
        }
      ],
      "stateMutability": "view",
      "type": "function"
    },
    {
      "inputs": [
        {
          "internalType": "uint256[]",
          "name": "_voteOptionIndices",
          "type": "uint256[]"
        },
        {
          "internalType": "uint256[]",
          "name": "_tallyResults",
          "type": "uint256[]"
        },
        {
          "internalType": "uint256[][][]",
          "name": "_tallyResultProofs",
          "type": "uint256[][][]"
        },
        {
          "internalType": "uint256",
          "name": "_tallyResultSalt",
          "type": "uint256"
        },
        {
          "internalType": "uint256",
          "name": "_spentVoiceCreditsHashes",
          "type": "uint256"
        },
        {
          "internalType": "uint256",
          "name": "_perVOSpentVoiceCreditsHashes",
          "type": "uint256"
        }
      ],
      "name": "addTallyResultsBatch",
      "outputs": [],
      "stateMutability": "nonpayable",
      "type": "function"
    },
    {
      "inputs": [],
      "name": "alpha",
      "outputs": [
        {
          "internalType": "uint256",
          "name": "",
          "type": "uint256"
        }
      ],
      "stateMutability": "view",
      "type": "function"
    },
    {
      "inputs": [
        {
          "internalType": "uint256",
          "name": "_budget",
          "type": "uint256"
        },
        {
          "internalType": "uint256",
          "name": "_totalVotesSquares",
          "type": "uint256"
        },
        {
          "internalType": "uint256",
          "name": "_totalSpent",
          "type": "uint256"
        }
      ],
      "name": "calcAlpha",
      "outputs": [
        {
          "internalType": "uint256",
          "name": "_alpha",
          "type": "uint256"
        }
      ],
      "stateMutability": "view",
      "type": "function"
    },
    {
      "inputs": [],
      "name": "cancel",
      "outputs": [],
      "stateMutability": "nonpayable",
      "type": "function"
    },
    {
      "inputs": [
        {
          "internalType": "uint256",
          "name": "_voteOptionIndex",
          "type": "uint256"
        },
        {
          "internalType": "uint256",
          "name": "_spent",
          "type": "uint256"
        },
        {
          "internalType": "uint256[][]",
          "name": "_spentProof",
          "type": "uint256[][]"
        },
        {
          "internalType": "uint256",
          "name": "_spentSalt",
          "type": "uint256"
        },
        {
          "internalType": "uint256",
          "name": "_resultsCommitment",
          "type": "uint256"
        },
        {
          "internalType": "uint256",
          "name": "_spentVoiceCreditsCommitment",
          "type": "uint256"
        }
      ],
      "name": "claimFunds",
      "outputs": [],
      "stateMutability": "nonpayable",
      "type": "function"
    },
    {
      "inputs": [
        {
          "components": [
            {
              "internalType": "uint256",
              "name": "x",
              "type": "uint256"
            },
            {
              "internalType": "uint256",
              "name": "y",
              "type": "uint256"
            }
          ],
          "internalType": "struct DomainObjs.PubKey",
          "name": "pubKey",
          "type": "tuple"
        },
        {
          "internalType": "uint256",
          "name": "amount",
          "type": "uint256"
        }
      ],
      "name": "contribute",
      "outputs": [],
      "stateMutability": "nonpayable",
      "type": "function"
    },
    {
      "inputs": [],
      "name": "contributorCount",
      "outputs": [
        {
          "internalType": "uint256",
          "name": "",
          "type": "uint256"
        }
      ],
      "stateMutability": "view",
      "type": "function"
    },
    {
      "inputs": [
        {
          "internalType": "address",
          "name": "",
          "type": "address"
        }
      ],
      "name": "contributors",
      "outputs": [
        {
          "internalType": "uint256",
          "name": "voiceCredits",
          "type": "uint256"
        },
        {
          "internalType": "bool",
          "name": "isRegistered",
          "type": "bool"
        }
      ],
      "stateMutability": "view",
      "type": "function"
    },
    {
      "inputs": [],
      "name": "coordinator",
      "outputs": [
        {
          "internalType": "address",
          "name": "",
          "type": "address"
        }
      ],
      "stateMutability": "view",
      "type": "function"
    },
    {
      "inputs": [
        {
          "internalType": "uint256",
          "name": "_totalSpent",
          "type": "uint256"
        },
        {
          "internalType": "uint256",
          "name": "_totalSpentSalt",
          "type": "uint256"
        },
        {
          "internalType": "uint256",
          "name": "_newResultCommitment",
          "type": "uint256"
        },
        {
          "internalType": "uint256",
          "name": "_perVOSpentVoiceCreditsHash",
          "type": "uint256"
        }
      ],
      "name": "finalize",
      "outputs": [],
      "stateMutability": "nonpayable",
      "type": "function"
    },
    {
      "inputs": [
        {
          "internalType": "uint256",
          "name": "_tallyResult",
          "type": "uint256"
        },
        {
          "internalType": "uint256",
          "name": "_spent",
          "type": "uint256"
        }
      ],
      "name": "getAllocatedAmount",
      "outputs": [
        {
          "internalType": "uint256",
          "name": "",
          "type": "uint256"
        }
      ],
      "stateMutability": "view",
      "type": "function"
    },
    {
      "inputs": [
        {
          "internalType": "address",
          "name": "",
          "type": "address"
        },
        {
          "internalType": "bytes",
          "name": "_data",
          "type": "bytes"
        }
      ],
      "name": "getVoiceCredits",
      "outputs": [
        {
          "internalType": "uint256",
          "name": "",
          "type": "uint256"
        }
      ],
      "stateMutability": "view",
      "type": "function"
    },
    {
      "inputs": [
        {
          "internalType": "address",
          "name": "addressValue",
          "type": "address"
        }
      ],
      "name": "isAddressZero",
      "outputs": [
        {
          "internalType": "bool",
          "name": "",
          "type": "bool"
        }
      ],
      "stateMutability": "pure",
      "type": "function"
    },
    {
      "inputs": [],
      "name": "isCancelled",
      "outputs": [
        {
          "internalType": "bool",
          "name": "",
          "type": "bool"
        }
      ],
      "stateMutability": "view",
      "type": "function"
    },
    {
      "inputs": [],
      "name": "isFinalized",
      "outputs": [
        {
          "internalType": "bool",
          "name": "",
          "type": "bool"
        }
      ],
      "stateMutability": "view",
      "type": "function"
    },
    {
      "inputs": [],
      "name": "maci",
      "outputs": [
        {
          "internalType": "contract MACI",
          "name": "",
          "type": "address"
        }
      ],
      "stateMutability": "view",
      "type": "function"
    },
    {
      "inputs": [],
      "name": "matchingPoolSize",
      "outputs": [
        {
          "internalType": "uint256",
          "name": "",
          "type": "uint256"
        }
      ],
      "stateMutability": "view",
      "type": "function"
    },
    {
      "inputs": [],
      "name": "nativeToken",
      "outputs": [
        {
          "internalType": "contract ERC20",
          "name": "",
          "type": "address"
        }
      ],
      "stateMutability": "view",
      "type": "function"
    },
    {
      "inputs": [],
      "name": "owner",
      "outputs": [
        {
          "internalType": "address",
          "name": "",
          "type": "address"
        }
      ],
      "stateMutability": "view",
      "type": "function"
    },
    {
      "inputs": [],
      "name": "poll",
      "outputs": [
        {
          "internalType": "contract Poll",
          "name": "",
          "type": "address"
        }
      ],
      "stateMutability": "view",
      "type": "function"
    },
    {
      "inputs": [],
      "name": "pollId",
      "outputs": [
        {
          "internalType": "uint256",
          "name": "",
          "type": "uint256"
        }
      ],
      "stateMutability": "view",
      "type": "function"
    },
    {
      "inputs": [
        {
          "internalType": "string",
          "name": "_tallyHash",
          "type": "string"
        }
      ],
      "name": "publishTallyHash",
      "outputs": [],
      "stateMutability": "nonpayable",
      "type": "function"
    },
    {
      "inputs": [],
      "name": "recipientRegistry",
      "outputs": [
        {
          "internalType": "contract IRecipientRegistry",
          "name": "",
          "type": "address"
        }
      ],
      "stateMutability": "view",
      "type": "function"
    },
    {
      "inputs": [
        {
          "internalType": "uint256",
          "name": "",
          "type": "uint256"
        }
      ],
      "name": "recipients",
      "outputs": [
        {
          "internalType": "bool",
          "name": "fundsClaimed",
          "type": "bool"
        },
        {
          "internalType": "bool",
          "name": "tallyVerified",
          "type": "bool"
        },
        {
          "internalType": "uint256",
          "name": "tallyResult",
          "type": "uint256"
        }
      ],
      "stateMutability": "view",
      "type": "function"
    },
    {
      "inputs": [
        {
          "internalType": "address",
          "name": "",
          "type": "address"
        },
        {
          "internalType": "bytes",
          "name": "_data",
          "type": "bytes"
        }
      ],
      "name": "register",
      "outputs": [],
      "stateMutability": "nonpayable",
      "type": "function"
    },
    {
      "inputs": [],
      "name": "renounceOwnership",
      "outputs": [],
      "stateMutability": "nonpayable",
      "type": "function"
    },
    {
      "inputs": [],
      "name": "resetTally",
      "outputs": [],
      "stateMutability": "nonpayable",
      "type": "function"
    },
    {
      "inputs": [
        {
          "internalType": "contract MACI",
          "name": "_maci",
          "type": "address"
        },
        {
          "components": [
            {
              "internalType": "address",
              "name": "poll",
              "type": "address"
            },
            {
              "internalType": "address",
              "name": "messageProcessor",
              "type": "address"
            },
            {
              "internalType": "address",
              "name": "tally",
              "type": "address"
            }
          ],
          "internalType": "struct MACI.PollContracts",
          "name": "_pollContracts",
          "type": "tuple"
        }
      ],
      "name": "setMaci",
      "outputs": [],
      "stateMutability": "nonpayable",
      "type": "function"
    },
    {
      "inputs": [
        {
          "internalType": "address",
          "name": "_maci",
          "type": "address"
        }
      ],
      "name": "setMaciInstance",
      "outputs": [],
      "stateMutability": "nonpayable",
      "type": "function"
    },
    {
      "inputs": [],
      "name": "tally",
      "outputs": [
        {
          "internalType": "contract Tally",
          "name": "",
          "type": "address"
        }
      ],
      "stateMutability": "view",
      "type": "function"
    },
    {
      "inputs": [],
      "name": "tallyHash",
      "outputs": [
        {
          "internalType": "string",
          "name": "",
          "type": "string"
        }
      ],
      "stateMutability": "view",
      "type": "function"
    },
    {
      "inputs": [],
      "name": "topupToken",
      "outputs": [
        {
          "internalType": "contract TopupToken",
          "name": "",
          "type": "address"
        }
      ],
      "stateMutability": "view",
      "type": "function"
    },
    {
      "inputs": [],
      "name": "totalSpent",
      "outputs": [
        {
          "internalType": "uint256",
          "name": "",
          "type": "uint256"
        }
      ],
      "stateMutability": "view",
      "type": "function"
    },
    {
      "inputs": [],
      "name": "totalTallyResults",
      "outputs": [
        {
          "internalType": "uint256",
          "name": "",
          "type": "uint256"
        }
      ],
      "stateMutability": "view",
      "type": "function"
    },
    {
      "inputs": [],
      "name": "totalVotes",
      "outputs": [
        {
          "internalType": "uint256",
          "name": "",
          "type": "uint256"
        }
      ],
      "stateMutability": "view",
      "type": "function"
    },
    {
      "inputs": [],
      "name": "totalVotesSquares",
      "outputs": [
        {
          "internalType": "uint256",
          "name": "",
          "type": "uint256"
        }
      ],
      "stateMutability": "view",
      "type": "function"
    },
    {
      "inputs": [
        {
          "internalType": "address",
          "name": "newOwner",
          "type": "address"
        }
      ],
      "name": "transferOwnership",
      "outputs": [],
      "stateMutability": "nonpayable",
      "type": "function"
    },
    {
      "inputs": [],
      "name": "userRegistry",
      "outputs": [
        {
          "internalType": "contract IUserRegistry",
          "name": "",
          "type": "address"
        }
      ],
      "stateMutability": "view",
      "type": "function"
    },
    {
      "inputs": [],
      "name": "voiceCreditFactor",
      "outputs": [
        {
          "internalType": "uint256",
          "name": "",
          "type": "uint256"
        }
      ],
      "stateMutability": "view",
      "type": "function"
    },
    {
      "inputs": [],
      "name": "withdrawContribution",
      "outputs": [],
      "stateMutability": "nonpayable",
      "type": "function"
    },
    {
      "inputs": [
        {
          "internalType": "address[]",
          "name": "_contributors",
          "type": "address[]"
        }
      ],
      "name": "withdrawContributions",
      "outputs": [
        {
          "internalType": "bool[]",
          "name": "result",
          "type": "bool[]"
        }
      ],
      "stateMutability": "nonpayable",
      "type": "function"
    }
  ],
  "bytecode": "0x60806040526006805461ffff191690556000601181905560128190556013553480156200002b57600080fd5b5060405162003f2638038062003f268339810160408190526200004e91620002f2565b33806200007557604051631e4fbdf760e01b81526000600482015260240160405180910390fd5b62000080816200027b565b506001600160a01b038416620000a9576040516373ca8a1760e01b815260040160405180910390fd5b6001600160a01b038316620000d15760405163477dc8e360e11b815260040160405180910390fd5b6001600160a01b038216620000f95760405163044f74ed60e31b815260040160405180910390fd5b6001600160a01b0381166200012157604051636188839760e01b815260040160405180910390fd5b600c80546001600160a01b0319166001600160a01b0386169081179091556040805163313ce56760e01b81529051633b9aca00929163313ce5679160048083019260209291908290030181865afa15801562000181573d6000803e3d6000fd5b505050506040513d601f19601f82011682018060405250810190620001a791906200035a565b620001b490600a6200049b565b620001c290612710620004ac565b620001ce9190620004c6565b6001819055620001e0576001620001e4565b6001545b600155600e80546001600160a01b038086166001600160a01b031992831617909255600f8054858416908316179055600a8054928416929091169190911790556040516200023290620002cb565b604051809103906000f0801580156200024f573d6000803e3d6000fd5b50600d80546001600160a01b0319166001600160a01b039290921691909117905550620004e992505050565b600080546001600160a01b038381166001600160a01b0319831681178455604051919092169283917f8be0079c531659141344cd1fd0a4f28419497f9722a3daafe3b4186f6b6457e09190a35050565b610b3d80620033e983390190565b6001600160a01b0381168114620002ef57600080fd5b50565b600080600080608085870312156200030957600080fd5b84516200031681620002d9565b60208601519094506200032981620002d9565b60408601519093506200033c81620002d9565b60608601519092506200034f81620002d9565b939692955090935050565b6000602082840312156200036d57600080fd5b815160ff811681146200037f57600080fd5b9392505050565b634e487b7160e01b600052601160045260246000fd5b600181815b80851115620003dd578160001904821115620003c157620003c162000386565b80851615620003cf57918102915b93841c9390800290620003a1565b509250929050565b600082620003f65750600162000495565b81620004055750600062000495565b81600181146200041e5760028114620004295762000449565b600191505062000495565b60ff8411156200043d576200043d62000386565b50506001821b62000495565b5060208310610133831016604e8410600b84101617156200046e575081810a62000495565b6200047a83836200039c565b806000190482111562000491576200049162000386565b0290505b92915050565b60006200037f60ff841683620003e5565b808202811582820484141762000495576200049562000386565b600082620004e457634e487b7160e01b600052601260045260246000fd5b500490565b612ef080620004f96000396000f3fe608060405234801561001057600080fd5b506004361061025e5760003560e01c806386bd3f9111610146578063bd7ceb8f116100c3578063db1d0fd511610087578063db1d0fd51461056c578063e1758bd814610575578063ea8a1af014610588578063ecfd892814610590578063f2fde38b14610599578063fb346eab146105ac57600080fd5b8063bd7ceb8f146104cf578063c2bb1ea2146104e2578063c9e20dce146104f5578063d1bc76a114610508578063d754d3261461055957600080fd5b80639d403a841161010a5780639d403a841461046d578063a117527914610476578063b364371c14610489578063b36543a9146104a9578063b86abb6a146104bc57600080fd5b806386bd3f91146103ff5780638d4e40831461042a5780638da5cb5b1461043757806395ee12211461044857806399d25bb61461045a57600080fd5b8063410673e5116101df578063683f3dc3116101a3578063683f3dc3146103995780636f13ab00146103b3578063715018a6146103bc5780637a07c603146103c457806382c2e0fb146103d7578063847c0a39146103ec57600080fd5b8063410673e51461034f578063432af11b1461036257806352abcbcf1461036a5780635ac606081461037d5780635c7460d61461038657600080fd5b80631609ffc4116102265780631609ffc4146102ce5780631b99d669146102e15780631f6d4942146102ea57806324b8fbf61461032957806334a0922c1461033c57600080fd5b80630a009097146102635780630d15fd77146102935780630d616d20146102aa5780630eac19c9146102b457806313e65cf3146102bd575b600080fd5b600a54610276906001600160a01b031681565b6040516001600160a01b0390911681526020015b60405180910390f35b61029c60055481565b60405190815260200161028a565b6102b26105b5565b005b61029c60135481565b6102b26102cb36600461226f565b50565b6102b26102dc3660046122d7565b610654565b61029c60125481565b6103146102f836600461226f565b6015602052600090815260409020805460019091015460ff1682565b6040805192835290151560208301520161028a565b6102b261033736600461238a565b6109a4565b600b54610276906001600160a01b031681565b600954610276906001600160a01b031681565b6102b2610b17565b6102b2610378366004612431565b610ea3565b61029c60015481565b600e54610276906001600160a01b031681565b6103a1600a81565b60405160ff909116815260200161028a565b61029c60075481565b6102b26111f9565b600d54610276906001600160a01b031681565b6103df61120d565b60405161028a91906124b3565b61029c6103fa3660046124c6565b61129b565b61041a61040d36600461226f565b6001600160a01b03161590565b604051901515815260200161028a565b60065461041a9060ff1681565b6000546001600160a01b0316610276565b60065461041a90610100900460ff1681565b6102b26104683660046124f2565b611338565b61029c60035481565b600854610276906001600160a01b031681565b61049c6104973660046125af565b6114e3565b60405161028a9190612642565b61029c6104b736600461238a565b611675565b6102b26104ca366004612688565b6116d0565b6102b26104dd3660046126b9565b6118fb565b61029c6104f036600461276a565b611b31565b600f54610276906001600160a01b031681565b61053c61051636600461278c565b6014602052600090815260409020805460019091015460ff808316926101009004169083565b60408051931515845291151560208401529082015260600161028a565b6102b26105673660046127a5565b611bc9565b61029c60115481565b600c54610276906001600160a01b031681565b6102b2611c85565b61029c60025481565b6102b26105a736600461226f565b611cc2565b61029c60045481565b6040805160018082528183019092526000916020808301908036833701905050905033816000815181106105eb576105eb612816565b60200260200101906001600160a01b031690816001600160a01b0316815250506000610616826114e3565b90508060008151811061062b5761062b612816565b602002602001015161065057604051630686827b60e51b815260040160405180910390fd5b5050565b60065460ff1661067757604051633562af9d60e11b815260040160405180910390fd5b600654610100900460ff16156106a057604051630dd287b760e41b815260040160405180910390fd5b60008781526014602052604090205460ff16156106d05760405163332e4aab60e01b815260040160405180910390fd5b600087815260146020526040808220805460ff19166001179055600854815163ac98e5df60e01b815291516001600160a01b039091169163ac98e5df9160048083019260809291908290030181865afa158015610731573d6000803e3d6000fd5b505050506040513d601f19601f820116820180604052508101906107559190612842565b600954604051630b659afd60e21b8152919550600094506001600160a01b03169250632d966bf4915061079a908c908c908c908c908c908a908c908e906004016128c8565b602060405180830381865afa1580156107b7573d6000803e3d6000fd5b505050506040513d601f19601f820116820180604052508101906107db919061299a565b9050806107fb576040516306ef14ab60e21b815260040160405180910390fd5b505060085460408051634909229f60e01b8152815160009384936001600160a01b0390911692634909229f92600480830193928290030181865afa158015610847573d6000803e3d6000fd5b505050506040513d601f19601f8201168201806040525081019061086b91906129bc565b600f5491935091506000906001600160a01b03166362564ed48b8561089086826129f6565b6040516001600160e01b031960e086901b168152600481019390935260248301919091526044820152606401602060405180830381865afa1580156108d9573d6000803e3d6000fd5b505050506040513d601f19601f820116820180604052508101906108fd9190612a09565b90506001600160a01b03811661091b57506000546001600160a01b03165b60008a81526014602052604081206001015490610938828c611b31565b600c54909150610952906001600160a01b03168483611cfd565b826001600160a01b03168c7fa4eb50103b0591feb0bc913f479d92af5eb7ea33e8c397b49bab52ce6af26cb58360405161098e91815260200190565b60405180910390a3505050505050505050505050565b600b546001600160a01b031633146109ce5760405162110daf60e41b815260040160405180910390fd5b6000818060200190518101906109e49190612a09565b600e54604051633da1c0c360e01b81526001600160a01b03808416600483015292935060009290911690633da1c0c390602401602060405180830381865afa158015610a34573d6000803e3d6000fd5b505050506040513d601f19601f82011682018060405250810190610a58919061299a565b905080610a7857604051637d93d32b60e01b815260040160405180910390fd5b6001600160a01b038216600090815260156020526040902054610aae57604051637784e85b60e11b815260040160405180910390fd5b6001600160a01b03821660009081526015602052604090206001015460ff1615610aeb57604051634f2532fb60e11b815260040160405180910390fd5b506001600160a01b031660009081526015602052604090206001908101805460ff191690911790555050565b600a546001600160a01b03163314610b4257604051634f6429f360e11b815260040160405180910390fd5b600b546001600160a01b0316610b6b5760405163ba487f8360e01b815260040160405180910390fd5b600854610b80906001600160a01b0316611d5c565b60065460ff1615610ba457604051630653ad9b60e31b815260040160405180910390fd5b60095460408051632b7ac3f360e01b815290516000926001600160a01b031691632b7ac3f39160048083019260209291908290030181865afa158015610bee573d6000803e3d6000fd5b505050506040513d601f19601f82011682018060405250810190610c129190612a09565b90506000600960009054906101000a90046001600160a01b03166001600160a01b03166313fb89326040518163ffffffff1660e01b8152600401602060405180830381865afa158015610c69573d6000803e3d6000fd5b505050506040513d601f19601f82011682018060405250810190610c8d9190612a09565b90506000600b60009054906101000a90046001600160a01b03166001600160a01b031663055575eb6040518163ffffffff1660e01b8152600401602060405180830381865afa158015610ce4573d6000803e3d6000fd5b505050506040513d601f19601f82011682018060405250810190610d089190612a09565b90506000600b60009054906101000a90046001600160a01b03166001600160a01b03166362b31f1e6040518163ffffffff1660e01b8152600401602060405180830381865afa158015610d5f573d6000803e3d6000fd5b505050506040513d601f19601f82011682018060405250810190610d839190612a09565b600854600a54604051633634487360e01b81529293506000926001600160a01b0380871693633634487393610dc5938b938b9381169216908890600401612a48565b6020604051808303816000875af1158015610de4573d6000803e3d6000fd5b505050506040513d601f19601f82011682018060405250810190610e089190612a09565b600854600a5460405163431a717560e01b81529293506000926001600160a01b038087169363431a717593610e4d938c938c938116928a929116908990600401612a7d565b6020604051808303816000875af1158015610e6c573d6000803e3d6000fd5b505050506040513d601f19601f82011682018060405250810190610e909190612a09565b9050610e9b81611df9565b505050505050565b610eab611e6a565b60065460ff1615610ecf57604051630653ad9b60e31b815260040160405180910390fd5b600b546001600160a01b0316610ef85760405163ba487f8360e01b815260040160405180910390fd5b600854610f0d906001600160a01b0316611d5c565b600960009054906101000a90046001600160a01b03166001600160a01b031663e3ff76066040518163ffffffff1660e01b8152600401602060405180830381865afa158015610f60573d6000803e3d6000fd5b505050506040513d601f19601f82011682018060405250810190610f84919061299a565b610fa157604051633e95b0b360e01b815260040160405180910390fd5b60108054610fae90612aba565b9050600003610fd05760405163b5804a8960e01b815260040160405180910390fd5b600854604080516301cb506760e11b815281516000936001600160a01b031692630396a0ce92600480820193918290030181865afa158015611016573d6000803e3d6000fd5b505050506040513d601f19601f8201168201806040525081019061103a91906129bc565b915050806012541461107657601254604051638450532f60e01b815261106d918391600401918252602082015260400190565b60405180910390fd5b8460000361109757604051630198e16360e41b815260040160405180910390fd5b6009546040516310bc5f5160e01b8152600481018790526024810186905260448101859052606481018490526000916001600160a01b0316906310bc5f5190608401602060405180830381865afa1580156110f6573d6000803e3d6000fd5b505050506040513d601f19601f8201168201806040525081019061111a919061299a565b90508061113a5760405163e5d02d8b60e01b815260040160405180910390fd5b6004868155600c546040516370a0823160e01b815230928101929092526000916001600160a01b03909116906370a0823190602401602060405180830381865afa15801561118c573d6000803e3d6000fd5b505050506040513d601f19601f820116820180604052508101906111b09190612aee565b90506001546004546111c29190612b07565b6111cc9082612b1e565b6003556013546004546111e091839161129b565b60115550506006805460ff191660011790555050505050565b611201611e6a565b61120b6000611e97565b565b6010805461121a90612aba565b80601f016020809104026020016040519081016040528092919081815260200182805461124690612aba565b80156112935780601f1061126857610100808354040283529160200191611293565b820191906000526020600020905b81548152906001019060200180831161127657829003601f168201915b505050505081565b600080600154836112ac9190612b07565b9050808510156112cf57604051630757bfc960e21b815260040160405180910390fd5b8284116112ef5760405163cf58cab560e01b815260040160405180910390fd5b6112f98385612b1e565b6001546113069190612b07565b670de0b6b3a76400006113198388612b1e565b6113239190612b07565b61132d9190612b31565b9150505b9392505050565b611340611e6a565b600b546001600160a01b03161561136a576040516343479cc960e01b815260040160405180910390fd5b6001600160a01b03821661139157604051633b313a3160e21b815260040160405180910390fd5b80516001600160a01b03166113b9576040516327325ab760e01b815260040160405180910390fd5b60208101516001600160a01b03166113e45760405163dddfeebf60e01b815260040160405180910390fd5b60006007819055604051630d465e5560e11b8152600481018290526001600160a01b03841690631a8cbcaa90602401602060405180830381865afa158015611430573d6000803e3d6000fd5b505050506040513d601f19601f820116820180604052508101906114549190612a09565b9050806001600160a01b031682600001516001600160a01b0316146114a257815160405163020652df60e51b81526001600160a01b038084166004830152909116602482015260440161106d565b600b80546001600160a01b038086166001600160a01b03199283161790925583516008805491909316911617905560408201516114de90611df9565b505050565b600654606090610100900460ff1661150e5760405163779df1a960e01b815260040160405180910390fd5b81516001600160401b0381111561152757611527612344565b604051908082528060200260200182016040528015611550578160200160208202803683370190505b50905060005b825181101561166f57600083828151811061157357611573612816565b6020908102919091018101516001546001600160a01b0382166000908152601590935260408320549193506115a791612b07565b90508015611635576001600160a01b03808316600090815260156020526040812055600c546115d891168383611cfd565b6040516001600160a01b038316907f46580edb5b9a1324df52ca22b64bb41ef2032d8798a366df464f2b2a51192b7890600090a2600184848151811061162057611620612816565b9115156020928302919091019091015261165a565b600084848151811061164957611649612816565b911515602092830291909101909101525b5050808061166790612b53565b915050611556565b50919050565b6000808280602001905181019061168c9190612a09565b6001600160a01b038116600090815260156020526040902054909150806116c6576040516373105e7f60e11b815260040160405180910390fd5b9150505b92915050565b600b546001600160a01b03166116f95760405163ba487f8360e01b815260040160405180910390fd5b60065460ff161561171d57604051630653ad9b60e31b815260040160405180910390fd5b8060000361173e57604051631f773d4f60e21b815260040160405180910390fd5b60015461174f90633b9aca00612b07565b81111561176f576040516360fc98b360e11b815260040160405180910390fd5b336000908152601560205260409020541561179d576040516305d252c360e01b815260040160405180910390fd5b6000600154826117ad9190612b31565b6040805180820182528281526000602080830182815233835260159091529281209151825591516001918201805460ff19169115159190911790556002805493945090929091906117ff9084906129f6565b909155505060408051336020820181905281830184905282518083038401815260608301845260808084018390528451808503909101815260a0909301909352600c54611859916001600160a01b03909116903087611ee7565b600b546040516319b2090560e11b81526001600160a01b0390911690633364120a9061188d90889086908690600401612b6c565b600060405180830381600087803b1580156118a757600080fd5b505af11580156118bb573d6000803e3d6000fd5b50506040518681523392507f4d154d4aae216bed6d0926db77c00df2b57c6b5ba4eee05775de20facede3a7b915060200160405180910390a25050505050565b600a546001600160a01b0316331461192657604051634f6429f360e11b815260040160405180910390fd5b600b546001600160a01b031661194f5760405163ba487f8360e01b815260040160405180910390fd5b600b60009054906101000a90046001600160a01b03166001600160a01b031663122db1536040518163ffffffff1660e01b8152600401602060405180830381865afa1580156119a2573d6000803e3d6000fd5b505050506040513d601f19601f820116820180604052508101906119c69190612aee565b6000036119e657604051638808c53360e01b815260040160405180910390fd5b600960009054906101000a90046001600160a01b03166001600160a01b031663e3ff76066040518163ffffffff1660e01b8152600401602060405180830381865afa158015611a39573d6000803e3d6000fd5b505050506040513d601f19601f82011682018060405250810190611a5d919061299a565b611a7a57604051633e95b0b360e01b815260040160405180910390fd5b60065460ff1615611a9e57604051630653ad9b60e31b815260040160405180910390fd5b60005b88811015611b2557611b138a8a83818110611abe57611abe612816565b90506020020135898984818110611ad757611ad7612816565b90506020020135888885818110611af057611af0612816565b9050602002810190611b029190612ba2565b611b0b91612beb565b878787611f20565b80611b1d81612b53565b915050611aa1565b50505050505050505050565b6000808384600154601154611b469190612b07565b611b509190612b07565b611b5a9190612b07565b9050600083600154611b6c9190612b07565b90506000611b8282670de0b6b3a7640000612b07565b9050600082601154611b949190612b07565b9050670de0b6b3a764000081611baa84876129f6565b611bb49190612b1e565b611bbe9190612b31565b979650505050505050565b600a546001600160a01b03163314611bf457604051634f6429f360e11b815260040160405180910390fd5b60065460ff1615611c1857604051630653ad9b60e31b815260040160405180910390fd5b6000819003611c3a5760405163e1f067e760e01b815260040160405180910390fd5b6010611c47828483612cf6565b507f25889b4220280b76437c086efe0bbecb5315f90890d209d027b11cceb7bdd3fb8282604051611c79929190612db6565b60405180910390a15050565b611c8d611e6a565b60065460ff1615611cb157604051630653ad9b60e31b815260040160405180910390fd5b6006805461ffff1916610101179055565b611cca611e6a565b6001600160a01b038116611cf457604051631e4fbdf760e01b81526000600482015260240161106d565b6102cb81611e97565b6040516001600160a01b038381166024830152604482018390526114de91859182169063a9059cbb906064015b604051602081830303815290604052915060e01b6020820180516001600160e01b0383818316178352505050506120f0565b600080826001600160a01b0316634909229f6040518163ffffffff1660e01b81526004016040805180830381865afa158015611d9c573d6000803e3d6000fd5b505050506040513d601f19601f82011682018060405250810190611dc091906129bc565b90925090506000611dd18342612b1e565b9050818111611df357604051635c3017c560e11b815260040160405180910390fd5b50505050565b6001600160a01b038116611e205760405163fcb052c560e01b815260040160405180910390fd5b600980546001600160a01b0319166001600160a01b0383169081179091556040517f55f72387e1b5744b5cf2b30b22ecd58541ba16e5ad53759cb4305131b61c31e590600090a250565b6000546001600160a01b0316331461120b5760405163118cdaa760e01b815233600482015260240161106d565b600080546001600160a01b038381166001600160a01b0319831681178455604051919092169283917f8be0079c531659141344cd1fd0a4f28419497f9722a3daafe3b4186f6b6457e09190a35050565b6040516001600160a01b038481166024830152838116604483015260648201839052611df39186918216906323b872dd90608401611d2a565b60008681526014602052604090208054610100900460ff1615611f565760405163f07fd83360e01b815260040160405180910390fd5b6008546040805163ac98e5df60e01b815290516000926001600160a01b03169163ac98e5df9160048083019260809291908290030181865afa158015611fa0573d6000803e3d6000fd5b505050506040513d601f19601f82011682018060405250810190611fc49190612842565b60095460405163a21fb51160e01b8152919550600094506001600160a01b0316925063a21fb5119150612007908c908c908c908c9089908d908d90600401612de5565b602060405180830381865afa158015612024573d6000803e3d6000fd5b505050506040513d601f19601f82011682018060405250810190612048919061299a565b905080612068576040516322b358b360e11b815260040160405180910390fd5b825461ff001916610100178355600183018890556120868880612b07565b60135461209391906129f6565b601355601280549060006120a683612b53565b9190505550887fcc3ebaeb86d31a2bd5e5cbf277392c258fe458af2031a9e0e377f5611aeeb9cf896040516120dd91815260200190565b60405180910390a2505050505050505050565b60006121056001600160a01b03841683612153565b9050805160001415801561212a575080806020019051810190612128919061299a565b155b156114de57604051635274afe760e01b81526001600160a01b038416600482015260240161106d565b60606113318383600084600080856001600160a01b031684866040516121799190612e9e565b60006040518083038185875af1925050503d80600081146121b6576040519150601f19603f3d011682016040523d82523d6000602084013e6121bb565b606091505b50915091506121cb8683836121d5565b9695505050505050565b6060826121ea576121e582612231565b611331565b815115801561220157506001600160a01b0384163b155b1561222a57604051639996b31560e01b81526001600160a01b038516600482015260240161106d565b5080611331565b8051156122415780518082602001fd5b604051630a12f52160e11b815260040160405180910390fd5b6001600160a01b03811681146102cb57600080fd5b60006020828403121561228157600080fd5b81356113318161225a565b60008083601f84011261229e57600080fd5b5081356001600160401b038111156122b557600080fd5b6020830191508360208260051b85010111156122d057600080fd5b9250929050565b600080600080600080600060c0888a0312156122f257600080fd5b873596506020880135955060408801356001600160401b0381111561231657600080fd5b6123228a828b0161228c565b989b979a50986060810135976080820135975060a09091013595509350505050565b634e487b7160e01b600052604160045260246000fd5b604051601f8201601f191681016001600160401b038111828210171561238257612382612344565b604052919050565b6000806040838503121561239d57600080fd5b82356123a88161225a565b91506020838101356001600160401b03808211156123c557600080fd5b818601915086601f8301126123d957600080fd5b8135818111156123eb576123eb612344565b6123fd601f8201601f1916850161235a565b9150808252878482850101111561241357600080fd5b80848401858401376000848284010152508093505050509250929050565b6000806000806080858703121561244757600080fd5b5050823594602084013594506040840135936060013592509050565b60005b8381101561247e578181015183820152602001612466565b50506000910152565b6000815180845261249f816020860160208601612463565b601f01601f19169290920160200192915050565b6020815260006113316020830184612487565b6000806000606084860312156124db57600080fd5b505081359360208301359350604090920135919050565b600080828403608081121561250657600080fd5b83356125118161225a565b92506060601f198201121561252557600080fd5b50604051606081018181106001600160401b038211171561254857612548612344565b60405260208401356125598161225a565b815260408401356125698161225a565b6020820152606084013561257c8161225a565b6040820152919491935090915050565b60006001600160401b038211156125a5576125a5612344565b5060051b60200190565b600060208083850312156125c257600080fd5b82356001600160401b038111156125d857600080fd5b8301601f810185136125e957600080fd5b80356125fc6125f78261258c565b61235a565b81815260059190911b8201830190838101908783111561261b57600080fd5b928401925b82841015611bbe5783356126338161225a565b82529284019290840190612620565b6020808252825182820181905260009190848201906040850190845b8181101561267c57835115158352928401929184019160010161265e565b50909695505050505050565b600080828403606081121561269c57600080fd5b60408112156126aa57600080fd5b50919360408501359350915050565b600080600080600080600080600060c08a8c0312156126d757600080fd5b89356001600160401b03808211156126ee57600080fd5b6126fa8d838e0161228c565b909b50995060208c013591508082111561271357600080fd5b61271f8d838e0161228c565b909950975060408c013591508082111561273857600080fd5b506127458c828d0161228c565b9a9d999c50979a969997986060880135976080810135975060a0013595509350505050565b6000806040838503121561277d57600080fd5b50508035926020909101359150565b60006020828403121561279e57600080fd5b5035919050565b600080602083850312156127b857600080fd5b82356001600160401b03808211156127cf57600080fd5b818501915085601f8301126127e357600080fd5b8135818111156127f257600080fd5b86602082850101111561280457600080fd5b60209290920196919550909350505050565b634e487b7160e01b600052603260045260246000fd5b805160ff8116811461283d57600080fd5b919050565b6000806000806080858703121561285857600080fd5b6128618561282c565b935061286f6020860161282c565b925061287d6040860161282c565b915061288b6060860161282c565b905092959194509250565b81835260006001600160fb1b038311156128af57600080fd5b8260051b80836020870137939093016020019392505050565b600060e082018a835260208a8185015260e0604085015281898352610100925082850190506005838b821b87010193508b60005b8c81101561296d5787860360ff190184528135368f9003601e1901811261292257600080fd5b8e0185810190356001600160401b0381111561293d57600080fd5b80851b360382131561294e57600080fd5b612959888284612896565b9750505092840192908401906001016128fc565b50505050506060830187905260ff86166080840152905060a082019390935260c001529695505050505050565b6000602082840312156129ac57600080fd5b8151801515811461133157600080fd5b600080604083850312156129cf57600080fd5b505080516020909101519092909150565b634e487b7160e01b600052601160045260246000fd5b808201808211156116ca576116ca6129e0565b600060208284031215612a1b57600080fd5b81516113318161225a565b60028110612a4457634e487b7160e01b600052602160045260246000fd5b9052565b6001600160a01b038681168252858116602083015284811660408301528316606082015260a081016121cb6080830184612a26565b6001600160a01b0387811682528681166020830152858116604083015284811660608301528316608082015260c08101611bbe60a0830184612a26565b600181811c90821680612ace57607f821691505b60208210810361166f57634e487b7160e01b600052602260045260246000fd5b600060208284031215612b0057600080fd5b5051919050565b80820281158282048414176116ca576116ca6129e0565b818103818111156116ca576116ca6129e0565b600082612b4e57634e487b7160e01b600052601260045260246000fd5b500490565b600060018201612b6557612b656129e0565b5060010190565b8335815260208401356020820152608060408201526000612b906080830185612487565b82810360608401526121cb8185612487565b6000808335601e19843603018112612bb957600080fd5b8301803591506001600160401b03821115612bd357600080fd5b6020019150600581901b36038213156122d057600080fd5b6000612bf96125f78461258c565b83815260208082019190600586811b860136811115612c1757600080fd5b865b81811015612ca35780356001600160401b03811115612c385760008081fd5b880136601f820112612c4a5760008081fd5b8035612c586125f78261258c565b81815290851b82018601908681019036831115612c755760008081fd5b928701925b82841015612c9357833582529287019290870190612c7a565b8952505050948301948301612c19565b5092979650505050505050565b601f8211156114de57600081815260208120601f850160051c81016020861015612cd75750805b601f850160051c820191505b81811015610e9b57828155600101612ce3565b6001600160401b03831115612d0d57612d0d612344565b612d2183612d1b8354612aba565b83612cb0565b6000601f841160018114612d555760008515612d3d5750838201355b600019600387901b1c1916600186901b178355612daf565b600083815260209020601f19861690835b82811015612d865786850135825560209485019460019092019101612d66565b5086821015612da35760001960f88860031b161c19848701351681555b505060018560011b0183555b5050505050565b60208152816020820152818360408301376000818301604090810191909152601f909201601f19160101919050565b600060e082018983526020898185015260e0604085015281895180845261010093508386019150838160051b8701019350828b016000805b83811015612e715788870360ff19018552825180518089529087019087890190845b81811015612e5b57835183529289019291890191600101612e3f565b5090985050509385019391850191600101612e1d565b5050505050606084018890525060ff86166080840152905060a082019390935260c0015295945050505050565b60008251612eb0818460208701612463565b919091019291505056fea2646970667358221220ddc2f83b63355fd97d326b9371e25cf0ffdaafcbafe11cc48a616fd4d00406f164736f6c63430008140033608060405234801561001057600080fd5b50604080518082018252600b8082526a151bdc1d5c10dc99591a5d60aa1b6020808401829052845180860190955291845290830152339160036100538382610191565b5060046100608282610191565b5050506001600160a01b03811661009157604051631e4fbdf760e01b81526000600482015260240160405180910390fd5b61009a816100a0565b50610250565b600580546001600160a01b038381166001600160a01b0319831681179093556040519116919082907f8be0079c531659141344cd1fd0a4f28419497f9722a3daafe3b4186f6b6457e090600090a35050565b634e487b7160e01b600052604160045260246000fd5b600181811c9082168061011c57607f821691505b60208210810361013c57634e487b7160e01b600052602260045260246000fd5b50919050565b601f82111561018c57600081815260208120601f850160051c810160208610156101695750805b601f850160051c820191505b8181101561018857828155600101610175565b5050505b505050565b81516001600160401b038111156101aa576101aa6100f2565b6101be816101b88454610108565b84610142565b602080601f8311600181146101f357600084156101db5750858301515b600019600386901b1c1916600185901b178555610188565b600085815260208120601f198616915b8281101561022257888601518255948401946001909101908401610203565b50858210156102405787850151600019600388901b60f8161c191681555b5050505050600190811b01905550565b6108dd80620002606000396000f3fe608060405234801561001057600080fd5b50600436106100cf5760003560e01c8063715018a61161008c57806397dc4a131161006657806397dc4a131461019f578063a9059cbb146101b2578063dd62ed3e146101c5578063f2fde38b146101fe57600080fd5b8063715018a6146101725780638da5cb5b1461017c57806395d89b411461019757600080fd5b806306fdde03146100d4578063095ea7b3146100f257806318160ddd1461011557806323b872dd14610127578063313ce5671461013a57806370a0823114610149575b600080fd5b6100dc610211565b6040516100e9919061070e565b60405180910390f35b610105610100366004610778565b6102a3565b60405190151581526020016100e9565b6002545b6040519081526020016100e9565b6101056101353660046107a2565b6102bd565b604051601281526020016100e9565b6101196101573660046107de565b6001600160a01b031660009081526020819052604090205490565b61017a6102e1565b005b6005546040516001600160a01b0390911681526020016100e9565b6100dc6102f5565b61017a6101ad366004610800565b610304565b6101056101c0366004610778565b610319565b6101196101d3366004610819565b6001600160a01b03918216600090815260016020908152604080832093909416825291909152205490565b61017a61020c3660046107de565b610327565b6060600380546102209061084c565b80601f016020809104026020016040519081016040528092919081815260200182805461024c9061084c565b80156102995780601f1061026e57610100808354040283529160200191610299565b820191906000526020600020905b81548152906001019060200180831161027c57829003601f168201915b5050505050905090565b6000336102b1818585610367565b60019150505b92915050565b6000336102cb858285610379565b6102d68585856103f7565b506001949350505050565b6102e9610456565b6102f36000610483565b565b6060600480546102209061084c565b61030c610456565b61031633826104d5565b50565b6000336102b18185856103f7565b61032f610456565b6001600160a01b03811661035e57604051631e4fbdf760e01b8152600060048201526024015b60405180910390fd5b61031681610483565b610374838383600161050f565b505050565b6001600160a01b0383811660009081526001602090815260408083209386168352929052205460001981146103f157818110156103e257604051637dc7a0d960e11b81526001600160a01b03841660048201526024810182905260448101839052606401610355565b6103f18484848403600061050f565b50505050565b6001600160a01b03831661042157604051634b637e8f60e11b815260006004820152602401610355565b6001600160a01b03821661044b5760405163ec442f0560e01b815260006004820152602401610355565b6103748383836105e4565b6005546001600160a01b031633146102f35760405163118cdaa760e01b8152336004820152602401610355565b600580546001600160a01b038381166001600160a01b0319831681179093556040519116919082907f8be0079c531659141344cd1fd0a4f28419497f9722a3daafe3b4186f6b6457e090600090a35050565b6001600160a01b0382166104ff5760405163ec442f0560e01b815260006004820152602401610355565b61050b600083836105e4565b5050565b6001600160a01b0384166105395760405163e602df0560e01b815260006004820152602401610355565b6001600160a01b03831661056357604051634a1406b160e11b815260006004820152602401610355565b6001600160a01b03808516600090815260016020908152604080832093871683529290522082905580156103f157826001600160a01b0316846001600160a01b03167f8c5be1e5ebec7d5bd14f71427d1e84f3dd0314c0f7b2291e5b200ac8c7c3b925846040516105d691815260200190565b60405180910390a350505050565b6001600160a01b03831661060f5780600260008282546106049190610886565b909155506106819050565b6001600160a01b038316600090815260208190526040902054818110156106625760405163391434e360e21b81526001600160a01b03851660048201526024810182905260448101839052606401610355565b6001600160a01b03841660009081526020819052604090209082900390555b6001600160a01b03821661069d576002805482900390556106bc565b6001600160a01b03821660009081526020819052604090208054820190555b816001600160a01b0316836001600160a01b03167fddf252ad1be2c89b69c2b068fc378daa952ba7f163c4a11628f55a4df523b3ef8360405161070191815260200190565b60405180910390a3505050565b600060208083528351808285015260005b8181101561073b5785810183015185820160400152820161071f565b506000604082860101526040601f19601f8301168501019250505092915050565b80356001600160a01b038116811461077357600080fd5b919050565b6000806040838503121561078b57600080fd5b6107948361075c565b946020939093013593505050565b6000806000606084860312156107b757600080fd5b6107c08461075c565b92506107ce6020850161075c565b9150604084013590509250925092565b6000602082840312156107f057600080fd5b6107f98261075c565b9392505050565b60006020828403121561081257600080fd5b5035919050565b6000806040838503121561082c57600080fd5b6108358361075c565b91506108436020840161075c565b90509250929050565b600181811c9082168061086057607f821691505b60208210810361088057634e487b7160e01b600052602260045260246000fd5b50919050565b808201808211156102b757634e487b7160e01b600052601160045260246000fdfea264697066735822122099ec70d94370a698fd11922c03b99c4aefe77ad7caa603bce95147a82fe2923264736f6c63430008140033",
  "linkReferences": {},
  "deployedLinkReferences": {}
}