{
  "_format": "hh-sol-artifact-1",
  "contractName": "OptimisticRecipientRegistry",
  "sourceName": "contracts/recipientRegistry/OptimisticRecipientRegistry.sol",
  "abi": [
    {
      "inputs": [
        {
          "internalType": "uint256",
          "name": "_baseDeposit",
          "type": "uint256"
        },
        {
          "internalType": "uint256",
          "name": "_challengePeriodDuration",
          "type": "uint256"
        },
        {
          "internalType": "address",
          "name": "_controller",
          "type": "address"
        }
      ],
      "stateMutability": "nonpayable",
      "type": "constructor"
    },
    {
      "anonymous": false,
      "inputs": [
        {
          "indexed": true,
          "internalType": "address",
          "name": "previousOwner",
          "type": "address"
        },
        {
          "indexed": true,
          "internalType": "address",
          "name": "newOwner",
          "type": "address"
        }
      ],
      "name": "OwnershipTransferred",
      "type": "event"
    },
    {
      "anonymous": false,
      "inputs": [
        {
          "indexed": true,
          "internalType": "bytes32",
          "name": "_recipientId",
          "type": "bytes32"
        },
        {
          "indexed": true,
          "internalType": "enum OptimisticRecipientRegistry.RequestType",
          "name": "_type",
          "type": "uint8"
        },
        {
          "indexed": true,
          "internalType": "bool",
          "name": "_rejected",
          "type": "bool"
        },
        {
          "indexed": false,
          "internalType": "uint256",
          "name": "_recipientIndex",
          "type": "uint256"
        },
        {
          "indexed": false,
          "internalType": "uint256",
          "name": "_timestamp",
          "type": "uint256"
        }
      ],
      "name": "RequestResolved",
      "type": "event"
    },
    {
      "anonymous": false,
      "inputs": [
        {
          "indexed": true,
          "internalType": "bytes32",
          "name": "_recipientId",
          "type": "bytes32"
        },
        {
          "indexed": true,
          "internalType": "enum OptimisticRecipientRegistry.RequestType",
          "name": "_type",
          "type": "uint8"
        },
        {
          "indexed": false,
          "internalType": "address",
          "name": "_recipient",
          "type": "address"
        },
        {
          "indexed": false,
          "internalType": "string",
          "name": "_metadata",
          "type": "string"
        },
        {
          "indexed": false,
          "internalType": "uint256",
          "name": "_timestamp",
          "type": "uint256"
        }
      ],
      "name": "RequestSubmitted",
      "type": "event"
    },
    {
      "inputs": [
        {
          "internalType": "address",
          "name": "_recipient",
          "type": "address"
        },
        {
          "internalType": "string",
          "name": "_metadata",
          "type": "string"
        }
      ],
      "name": "addRecipient",
      "outputs": [],
      "stateMutability": "payable",
      "type": "function"
    },
    {
      "inputs": [],
      "name": "baseDeposit",
      "outputs": [
        {
          "internalType": "uint256",
          "name": "",
          "type": "uint256"
        }
      ],
      "stateMutability": "view",
      "type": "function"
    },
    {
      "inputs": [],
      "name": "challengePeriodDuration",
      "outputs": [
        {
          "internalType": "uint256",
          "name": "",
          "type": "uint256"
        }
      ],
      "stateMutability": "view",
      "type": "function"
    },
    {
      "inputs": [
        {
          "internalType": "bytes32",
          "name": "_recipientId",
          "type": "bytes32"
        },
        {
          "internalType": "address payable",
          "name": "_beneficiary",
          "type": "address"
        }
      ],
      "name": "challengeRequest",
      "outputs": [
        {
          "internalType": "bool",
          "name": "",
          "type": "bool"
        }
      ],
      "stateMutability": "nonpayable",
      "type": "function"
    },
    {
      "inputs": [],
      "name": "controller",
      "outputs": [
        {
          "internalType": "address",
          "name": "",
          "type": "address"
        }
      ],
      "stateMutability": "view",
      "type": "function"
    },
    {
      "inputs": [
        {
          "internalType": "bytes32",
          "name": "_recipientId",
          "type": "bytes32"
        }
      ],
      "name": "executeRequest",
      "outputs": [
        {
          "internalType": "bool",
          "name": "",
          "type": "bool"
        }
      ],
      "stateMutability": "nonpayable",
      "type": "function"
    },
    {
      "inputs": [
        {
          "internalType": "uint256",
          "name": "_index",
          "type": "uint256"
        },
        {
          "internalType": "uint256",
          "name": "_startTime",
          "type": "uint256"
        },
        {
          "internalType": "uint256",
          "name": "_endTime",
          "type": "uint256"
        }
      ],
      "name": "getRecipientAddress",
      "outputs": [
        {
          "internalType": "address",
          "name": "",
          "type": "address"
        }
      ],
      "stateMutability": "view",
      "type": "function"
    },
    {
      "inputs": [],
      "name": "getRecipientCount",
      "outputs": [
        {
          "internalType": "uint256",
          "name": "",
          "type": "uint256"
        }
      ],
      "stateMutability": "view",
      "type": "function"
    },
    {
      "inputs": [],
      "name": "maxRecipients",
      "outputs": [
        {
          "internalType": "uint256",
          "name": "",
          "type": "uint256"
        }
      ],
      "stateMutability": "view",
      "type": "function"
    },
    {
      "inputs": [],
      "name": "owner",
      "outputs": [
        {
          "internalType": "address",
          "name": "",
          "type": "address"
        }
      ],
      "stateMutability": "view",
      "type": "function"
    },
    {
      "inputs": [
        {
          "internalType": "bytes32",
          "name": "_recipientId",
          "type": "bytes32"
        }
      ],
      "name": "removeRecipient",
      "outputs": [],
      "stateMutability": "payable",
      "type": "function"
    },
    {
      "inputs": [],
      "name": "renounceOwnership",
      "outputs": [],
      "stateMutability": "nonpayable",
      "type": "function"
    },
    {
      "inputs": [
        {
          "internalType": "uint256",
          "name": "_baseDeposit",
          "type": "uint256"
        }
      ],
      "name": "setBaseDeposit",
      "outputs": [],
      "stateMutability": "nonpayable",
      "type": "function"
    },
    {
      "inputs": [
        {
          "internalType": "uint256",
          "name": "_challengePeriodDuration",
          "type": "uint256"
        }
      ],
      "name": "setChallengePeriodDuration",
      "outputs": [],
      "stateMutability": "nonpayable",
      "type": "function"
    },
    {
      "inputs": [
        {
          "internalType": "uint256",
          "name": "_maxRecipients",
          "type": "uint256"
        }
      ],
      "name": "setMaxRecipients",
      "outputs": [
        {
          "internalType": "bool",
          "name": "",
          "type": "bool"
        }
      ],
      "stateMutability": "nonpayable",
      "type": "function"
    },
    {
      "inputs": [
        {
          "internalType": "address",
          "name": "newOwner",
          "type": "address"
        }
      ],
      "name": "transferOwnership",
      "outputs": [],
      "stateMutability": "nonpayable",
      "type": "function"
    }
  ],
  "bytecode": "0x608060405234801561001057600080fd5b50604051611a4c380380611a4c83398101604081905261002f916100b5565b61003833610065565b600692909255600755600180546001600160a01b0319166001600160a01b039092169190911790556100fb565b600080546001600160a01b038381166001600160a01b0319831681178455604051919092169283917f8be0079c531659141344cd1fd0a4f28419497f9722a3daafe3b4186f6b6457e09190a35050565b6000806000606084860312156100ca57600080fd5b83516020850151604086015191945092506001600160a01b03811681146100f057600080fd5b809150509250925092565b6119428061010a6000396000f3fe6080604052600436106100f25760003560e01c80638d62272e1161008a578063d7c9ebdd11610059578063d7c9ebdd14610271578063e9c2416614610284578063f2fde38b146102a4578063f77c4791146102c457600080fd5b80638d62272e146101fe5780638da5cb5b1461021e578063af99b63f1461023c578063c22a933c1461025157600080fd5b806369474625116100c657806369474625146101aa578063715018a6146101c0578063739b5384146101d557806388a13072146101e857600080fd5b806282a36d146100f7578063148ec9ab146101205780634458e6091461015057806362564ed414610172575b600080fd5b34801561010357600080fd5b5061010d60075481565b6040519081526020015b60405180910390f35b34801561012c57600080fd5b5061014061013b3660046114b2565b6102e4565b6040519015158152602001610117565b34801561015c57600080fd5b5061017061016b3660046114b2565b610388565b005b34801561017e57600080fd5b5061019261018d3660046114cb565b610395565b6040516001600160a01b039091168152602001610117565b3480156101b657600080fd5b5061010d60065481565b3480156101cc57600080fd5b50610170610516565b6101706101e336600461150c565b61052a565b3480156101f457600080fd5b5061010d60025481565b34801561020a57600080fd5b50610140610219366004611591565b6107ee565b34801561022a57600080fd5b506000546001600160a01b0316610192565b34801561024857600080fd5b5061010d610a01565b34801561025d57600080fd5b5061017061026c3660046114b2565b610a18565b61017061027f3660046114b2565b610a25565b34801561029057600080fd5b5061014061029f3660046114b2565b610c06565b3480156102b057600080fd5b506101706102bf3660046115c1565b610edc565b3480156102d057600080fd5b50600154610192906001600160a01b031681565b6000600254821015610365576040805162461bcd60e51b81526020600482015260248101919091527f526563697069656e7452656769737472793a204d6178206e756d626572206f6660448201527f20726563697069656e74732063616e206e6f742062652064656372656173656460648201526084015b60405180910390fd5b6001546001600160a01b0316331461037f57506000919050565b50600255600190565b610390610f55565b600755565b60008315806103a5575060055484115b156103b25750600061050f565b600060056103c16001876115f4565b815481106103d1576103d161160b565b9060005260206000200180548060200260200160405190810160405280929190818152602001828054801561042557602002820191906000526020600020905b815481526020019060010190808311610411575b5050505050905080516000141561044057600091505061050f565b80516000905b801561050a5760008361045a6001846115f4565b8151811061046a5761046a61160b565b60209081029190910181015160008181526003808452604091829020825160808101845281546001600160a01b031681526001820154958101959095526002810154928501839052015460608401529092508710156104ca5750506104f8565b6060810151158015906104e1575087816060015111155b156104f357839550505050505061050f565b519250505b8061050281611621565b915050610446565b509150505b9392505050565b61051e610f55565b6105286000610faf565b565b6001600160a01b0383166105955760405162461bcd60e51b815260206004820152602c60248201527f526563697069656e7452656769737472793a20526563697069656e742061646460448201526b72657373206973207a65726f60a01b606482015260840161035c565b806105fb5760405162461bcd60e51b815260206004820152603060248201527f526563697069656e7452656769737472793a204d6574616461746120696e666f60448201526f20697320656d70747920737472696e6760801b606482015260840161035c565b600061060930858585610fff565b6000818152600360205260409020600101549091501561063b5760405162461bcd60e51b815260040161035c90611638565b6000818152600860205260409020600101541561066a5760405162461bcd60e51b815260040161035c90611687565b600654341461068b5760405162461bcd60e51b815260040161035c906116d3565b6040805160c081019091528060008152602001336001600160a01b03168152602001428152602001348152602001856001600160a01b0316815260200184848080601f01602080910402602001604051908101604052809392919081815260200183838082843760009201829052509390945250508381526008602052604090208251815491925090829060ff19166001838181111561072d5761072d61171e565b02179055506020828101518254610100600160a81b0319166101006001600160a01b0392831602178355604084015160018401556060840151600284015560808401516003840180546001600160a01b0319169190921617905560a0830151805161079e92600485019201906113a5565b50600091506107aa9050565b817fbb4ad318e5170357f8e7d25deefe5cf02bc8182cbb95600c22a1105978a8f1b8868686426040516107e09493929190611734565b60405180910390a350505050565b60006107f8610f55565b600083815260086020526040808220815160c081019092528054829060ff1660018111156108285761082861171e565b60018111156108395761083961171e565b815281546001600160a01b03610100909104811660208301526001830154604083015260028301546060830152600383015416608082015260048201805460a0909201916108869061177e565b80601f01602080910402602001604051908101604052809291908181526020018280546108b29061177e565b80156108ff5780601f106108d4576101008083540402835291602001916108ff565b820191906000526020600020905b8154815290600101906020018083116108e257829003601f168201915b505050505081525050905080604001516000141561092f5760405162461bcd60e51b815260040161035c906117b9565b600084815260086020526040812080546001600160a81b031916815560018101829055600281018290556003810180546001600160a01b0319169055906109796004830182611429565b505060608101516040516000916001600160a01b0386169181156108fc02919084818181858888f186519095506001945092505050818111156109be576109be61171e565b604080516000815242602082015288917f863e10260d0b36e06a2dee07c61c59e95209f121464f054ec556d22e958b1ef2910160405180910390a4949350505050565b600454600554600091610a13916115f4565b905090565b610a20610f55565b600655565b600081815260036020526040902060010154610a535760405162461bcd60e51b815260040161035c90611802565b6000818152600360208190526040909120015415610a835760405162461bcd60e51b815260040161035c90611855565b60008181526008602052604090206001015415610ab25760405162461bcd60e51b815260040161035c90611687565b6006543414610ad35760405162461bcd60e51b815260040161035c906116d3565b6040805160c08101825260018082523360208084019190915242838501523460608401526000608084018190528451808301865281815260a085015285815260089091529290922081518154929391929091839160ff1916908381811115610b3d57610b3d61171e565b02179055506020828101518254610100600160a81b0319166101006001600160a01b0392831602178355604084015160018401556060840151600284015560808401516003840180546001600160a01b0319169190921617905560a08301518051610bae92600485019201906113a5565b5060019150610bba9050565b6040805160008082526060602083018190528201524281830152905183917fbb4ad318e5170357f8e7d25deefe5cf02bc8182cbb95600c22a1105978a8f1b8919081900360800190a350565b600081815260086020526040808220815160c08101909252805483929190829060ff166001811115610c3a57610c3a61171e565b6001811115610c4b57610c4b61171e565b815281546001600160a01b03610100909104811660208301526001830154604083015260028301546060830152600383015416608082015260048201805460a090920191610c989061177e565b80601f0160208091040260200160405190810160405280929190818152602001828054610cc49061177e565b8015610d115780601f10610ce657610100808354040283529160200191610d11565b820191906000526020600020905b815481529060010190602001808311610cf457829003601f168201915b5050505050815250509050806040015160001415610d415760405162461bcd60e51b815260040161035c906117b9565b6000546001600160a01b03163314610dcb576007546040820151610d6590426115f4565b1015610dcb5760405162461bcd60e51b815260206004820152602f60248201527f526563697069656e7452656769737472793a204368616c6c656e67652070657260448201526e34b7b21034b9903737ba1037bb32b960891b606482015260840161035c565b6000600182516001811115610de257610de261171e565b1415610df657610df184611038565b610e07565b610e048483608001516110db565b90505b600084815260086020526040812080546001600160a81b031916815560018101829055600281018290556003810180546001600160a01b031916905590610e516004830182611429565b5050602082015160608301516040516000926001600160a01b03169180156108fc029184818181858888f1875190955060009450925050506001811115610e9a57610e9a61171e565b6040805185815242602082015288917f863e10260d0b36e06a2dee07c61c59e95209f121464f054ec556d22e958b1ef2910160405180910390a4949350505050565b610ee4610f55565b6001600160a01b038116610f495760405162461bcd60e51b815260206004820152602660248201527f4f776e61626c653a206e6577206f776e657220697320746865207a65726f206160448201526564647265737360d01b606482015260840161035c565b610f5281610faf565b50565b6000546001600160a01b031633146105285760405162461bcd60e51b815260206004820181905260248201527f4f776e61626c653a2063616c6c6572206973206e6f7420746865206f776e6572604482015260640161035c565b600080546001600160a01b038381166001600160a01b0319831681178455604051919092169283917f8be0079c531659141344cd1fd0a4f28419497f9722a3daafe3b4186f6b6457e09190a35050565b60008484848460405160200161101894939291906118a1565b604051602081830303815290604052805190602001209050949350505050565b6000818152600360205260409020600101546110665760405162461bcd60e51b815260040161035c90611802565b60008181526003602081905260409091200154156110965760405162461bcd60e51b815260040161035c90611855565b60008181526003602081905260408220429101556004805460018101825591527f8a35acfbc15ff81a39ae7d344fd709f28e8600b4aa8c65c6b64bfe7fe36bd19b0155565b600080600254116111445760405162461bcd60e51b815260206004820152602d60248201527f526563697069656e7452656769737472793a20526563697069656e74206c696d60448201526c1a5d081a5cc81b9bdd081cd95d609a1b606482015260840161035c565b600083815260036020526040902060010154156111735760405162461bcd60e51b815260040161035c90611638565b60055460009081906111869060016118de565b905060025481116112255760408051600180825281830190925291925082916000916020808301908036833701905050905085816000815181106111cc576111cc61160b565b60209081029190910181019190915260058054600181018255600091909152825161121e927f036b6384b5eca791c62761152d0c79bb0604c104a5fb6f4eb0703f3154bb3db090920191840190611463565b5050611337565b6004546112875760405162461bcd60e51b815260206004820152602a60248201527f526563697069656e7452656769737472793a20526563697069656e74206c696d6044820152691a5d081c995858da195960b21b606482015260840161035c565b600480546000919061129b906001906115f4565b815481106112ab576112ab61160b565b9060005260206000200154905060048054806112c9576112c96118f6565b6001900381819060005260206000200160009055905560036000828152602001908152602001600020600101549250600560018461130791906115f4565b815481106113175761131761160b565b600091825260208083209091018054600181018255908352912001869055505b50604080516080810182526001600160a01b0380861682526020808301858152428486019081526000606086018181528b82526003948590529690209451855494166001600160a01b0319909416939093178455516001840155905160028301559151910155905092915050565b8280546113b19061177e565b90600052602060002090601f0160209004810192826113d35760008555611419565b82601f106113ec57805160ff1916838001178555611419565b82800160010185558215611419579182015b828111156114195782518255916020019190600101906113fe565b5061142592915061149d565b5090565b5080546114359061177e565b6000825580601f10611445575050565b601f016020900490600052602060002090810190610f52919061149d565b82805482825590600052602060002090810192821561141957916020028201828111156114195782518255916020019190600101906113fe565b5b80821115611425576000815560010161149e565b6000602082840312156114c457600080fd5b5035919050565b6000806000606084860312156114e057600080fd5b505081359360208301359350604090920135919050565b6001600160a01b0381168114610f5257600080fd5b60008060006040848603121561152157600080fd5b833561152c816114f7565b9250602084013567ffffffffffffffff8082111561154957600080fd5b818601915086601f83011261155d57600080fd5b81358181111561156c57600080fd5b87602082850101111561157e57600080fd5b6020830194508093505050509250925092565b600080604083850312156115a457600080fd5b8235915060208301356115b6816114f7565b809150509250929050565b6000602082840312156115d357600080fd5b813561050f816114f7565b634e487b7160e01b600052601160045260246000fd5b600082821015611606576116066115de565b500390565b634e487b7160e01b600052603260045260246000fd5b600081611630576116306115de565b506000190190565b6020808252602f908201527f526563697069656e7452656769737472793a20526563697069656e7420616c7260408201526e1958591e481c9959da5cdd195c9959608a1b606082015260800190565b6020808252602c908201527f526563697069656e7452656769737472793a205265717565737420616c72656160408201526b191e481cdd589b5a5d1d195960a21b606082015260800190565b6020808252602b908201527f526563697069656e7452656769737472793a20496e636f72726563742064657060408201526a1bdcda5d08185b5bdd5b9d60aa1b606082015260800190565b634e487b7160e01b600052602160045260246000fd5b6001600160a01b038516815260606020820181905281018390528284608083013760006080848301015260006080601f19601f860116830101905082604083015295945050505050565b600181811c9082168061179257607f821691505b602082108114156117b357634e487b7160e01b600052602260045260246000fd5b50919050565b60208082526029908201527f526563697069656e7452656769737472793a205265717565737420646f6573206040820152681b9bdd08195e1a5cdd60ba1b606082015260800190565b60208082526033908201527f526563697069656e7452656769737472793a20526563697069656e74206973206040820152726e6f7420696e2074686520726567697374727960681b606082015260800190565b6020808252602c908201527f526563697069656e7452656769737472793a20526563697069656e7420616c7260408201526b1958591e481c995b5bdd995960a21b606082015260800190565b60006bffffffffffffffffffffffff19808760601b168352808660601b166014840152508284602884013750600091016028019081529392505050565b600082198211156118f1576118f16115de565b500190565b634e487b7160e01b600052603160045260246000fdfea2646970667358221220d8ba0e4acfa8a58da57ae9f04ce254d0e0fab4c97e15a75894e1057ea291ff8e64736f6c634300080a0033",
  "linkReferences": {},
  "deployedLinkReferences": {}
}