{
  "_format": "hh-sol-artifact-1",
  "contractName": "SemaphoreUserRegistry",
  "sourceName": "contracts/userRegistry/SemaphoreUserRegistry.sol",
  "abi": [
    {
      "inputs": [
        {
          "internalType": "address",
          "name": "owner",
          "type": "address"
        }
      ],
      "name": "OwnableInvalidOwner",
      "type": "error"
    },
    {
      "inputs": [
        {
          "internalType": "address",
          "name": "account",
          "type": "address"
        }
      ],
      "name": "OwnableUnauthorizedAccount",
      "type": "error"
    },
    {
      "anonymous": false,
      "inputs": [
        {
          "indexed": true,
          "internalType": "address",
          "name": "previousOwner",
          "type": "address"
        },
        {
          "indexed": true,
          "internalType": "address",
          "name": "newOwner",
          "type": "address"
        }
      ],
      "name": "OwnershipTransferred",
      "type": "event"
    },
    {
      "anonymous": false,
      "inputs": [
        {
          "indexed": true,
          "internalType": "address",
          "name": "_user",
          "type": "address"
        },
        {
          "indexed": false,
          "internalType": "uint256",
          "name": "_semaphoreId",
          "type": "uint256"
        }
      ],
      "name": "UserAdded",
      "type": "event"
    },
    {
      "anonymous": false,
      "inputs": [
        {
          "indexed": true,
          "internalType": "address",
          "name": "_user",
          "type": "address"
        }
      ],
      "name": "UserRemoved",
      "type": "event"
    },
    {
      "inputs": [
        {
          "internalType": "address",
          "name": "_user",
          "type": "address"
        },
        {
          "internalType": "uint256",
          "name": "_semaphoreId",
          "type": "uint256"
        }
      ],
      "name": "addUser",
      "outputs": [],
      "stateMutability": "nonpayable",
      "type": "function"
    },
    {
      "inputs": [
        {
          "internalType": "uint256",
          "name": "_semaphoreId",
          "type": "uint256"
        }
      ],
      "name": "isVerifiedSemaphoreId",
      "outputs": [
        {
          "internalType": "bool",
          "name": "",
          "type": "bool"
        }
      ],
      "stateMutability": "view",
      "type": "function"
    },
    {
      "inputs": [
        {
          "internalType": "address",
          "name": "_user",
          "type": "address"
        }
      ],
      "name": "isVerifiedUser",
      "outputs": [
        {
          "internalType": "bool",
          "name": "",
          "type": "bool"
        }
      ],
      "stateMutability": "view",
      "type": "function"
    },
    {
      "inputs": [],
      "name": "owner",
      "outputs": [
        {
          "internalType": "address",
          "name": "",
          "type": "address"
        }
      ],
      "stateMutability": "view",
      "type": "function"
    },
    {
      "inputs": [
        {
          "internalType": "address",
          "name": "_user",
          "type": "address"
        }
      ],
      "name": "removeUser",
      "outputs": [],
      "stateMutability": "nonpayable",
      "type": "function"
    },
    {
      "inputs": [],
      "name": "renounceOwnership",
      "outputs": [],
      "stateMutability": "nonpayable",
      "type": "function"
    },
    {
      "inputs": [
        {
          "internalType": "address",
          "name": "newOwner",
          "type": "address"
        }
      ],
      "name": "transferOwnership",
      "outputs": [],
      "stateMutability": "nonpayable",
      "type": "function"
    }
  ],
  "bytecode": "0x608060405234801561001057600080fd5b50338061003757604051631e4fbdf760e01b81526000600482015260240160405180910390fd5b61004081610046565b50610096565b600080546001600160a01b038381166001600160a01b0319831681178455604051919092169283917f8be0079c531659141344cd1fd0a4f28419497f9722a3daafe3b4186f6b6457e09190a35050565b6105f3806100a56000396000f3fe608060405234801561001057600080fd5b506004361061007d5760003560e01c80638da5cb5b1161005b5780638da5cb5b146100f0578063985751881461010b578063d30171931461011e578063f2fde38b1461013157600080fd5b80633da1c0c314610082578063445a6291146100c3578063715018a6146100e6575b600080fd5b6100ae610090366004610558565b6001600160a01b031660009081526001602052604090205460ff1690565b60405190151581526020015b60405180910390f35b6100ae6100d136600461057a565b60009081526002602052604090205460ff1690565b6100ee610144565b005b6000546040516001600160a01b0390911681526020016100ba565b6100ee610119366004610558565b610158565b6100ee61012c366004610593565b610255565b6100ee61013f366004610558565b610481565b61014c6104bf565b61015660006104ec565b565b6101606104bf565b6001600160a01b03811660009081526001602052604090205460ff166101df5760405162461bcd60e51b815260206004820152602960248201527f5573657252656769737472793a2055736572206973206e6f7420696e2074686560448201526820726567697374727960b81b60648201526084015b60405180910390fd5b6001600160a01b0381166000818152600360208181526040808420805460018452828620805460ff1990811690915581875260028552838720805490911690558686529390925290839055519092917fe9dce8c992623ce791725b21e857e33248d1f190a25b5168313420eebdaae99d91a25050565b61025d6104bf565b6001600160a01b0382166102be5760405162461bcd60e51b815260206004820152602260248201527f5573657252656769737472793a20557365722061646472657373206973207a65604482015261726f60f01b60648201526084016101d6565b806000036103195760405162461bcd60e51b815260206004820152602260248201527f5573657252656769737472793a2053656d6170686f7265204964206973207a65604482015261726f60f01b60648201526084016101d6565b6001600160a01b03821660009081526001602052604090205460ff161561038e5760405162461bcd60e51b815260206004820152602360248201527f5573657252656769737472793a205573657220616c72656164792076657269666044820152621a595960ea1b60648201526084016101d6565b60008181526002602052604090205460ff16156104035760405162461bcd60e51b815260206004820152602d60248201527f5573657252656769737472793a2053656d6170686f726520496420616c72656160448201526c191e481c9959da5cdd195c9959609a1b60648201526084016101d6565b6001600160a01b0382166000818152600160208181526040808420805460ff1990811685179091558685526002835281852080549091169093179092558383526003815291819020849055518381527f25ddd06f7eaeb83bb3fbcaa231d4b89e2d7bcd781043983661920061e755a7f0910160405180910390a25050565b6104896104bf565b6001600160a01b0381166104b357604051631e4fbdf760e01b8152600060048201526024016101d6565b6104bc816104ec565b50565b6000546001600160a01b031633146101565760405163118cdaa760e01b81523360048201526024016101d6565b600080546001600160a01b038381166001600160a01b0319831681178455604051919092169283917f8be0079c531659141344cd1fd0a4f28419497f9722a3daafe3b4186f6b6457e09190a35050565b80356001600160a01b038116811461055357600080fd5b919050565b60006020828403121561056a57600080fd5b6105738261053c565b9392505050565b60006020828403121561058c57600080fd5b5035919050565b600080604083850312156105a657600080fd5b6105af8361053c565b94602093909301359350505056fea264697066735822122003352b6e5125bc49c7874dde07af588de42484cda7e38081354fb7236d0ccd8764736f6c63430008140033",
  "linkReferences": {},
  "deployedLinkReferences": {}
}