{
  "_format": "hh-sol-artifact-1",
  "contractName": "SimpleRecipientRegistry",
  "sourceName": "contracts/recipientRegistry/SimpleRecipientRegistry.sol",
  "abi": [
    {
      "inputs": [
        {
          "internalType": "address",
          "name": "_controller",
          "type": "address"
        }
      ],
      "stateMutability": "nonpayable",
      "type": "constructor"
    },
    {
      "anonymous": false,
      "inputs": [
        {
          "indexed": true,
          "internalType": "address",
          "name": "previousOwner",
          "type": "address"
        },
        {
          "indexed": true,
          "internalType": "address",
          "name": "newOwner",
          "type": "address"
        }
      ],
      "name": "OwnershipTransferred",
      "type": "event"
    },
    {
      "anonymous": false,
      "inputs": [
        {
          "indexed": true,
          "internalType": "bytes32",
          "name": "_recipientId",
          "type": "bytes32"
        },
        {
          "indexed": false,
          "internalType": "address",
          "name": "_recipient",
          "type": "address"
        },
        {
          "indexed": false,
          "internalType": "string",
          "name": "_metadata",
          "type": "string"
        },
        {
          "indexed": false,
          "internalType": "uint256",
          "name": "_index",
          "type": "uint256"
        },
        {
          "indexed": false,
          "internalType": "uint256",
          "name": "_timestamp",
          "type": "uint256"
        }
      ],
      "name": "RecipientAdded",
      "type": "event"
    },
    {
      "anonymous": false,
      "inputs": [
        {
          "indexed": true,
          "internalType": "bytes32",
          "name": "_recipientId",
          "type": "bytes32"
        },
        {
          "indexed": false,
          "internalType": "uint256",
          "name": "_timestamp",
          "type": "uint256"
        }
      ],
      "name": "RecipientRemoved",
      "type": "event"
    },
    {
      "inputs": [
        {
          "internalType": "address",
          "name": "_recipient",
          "type": "address"
        },
        {
          "internalType": "string",
          "name": "_metadata",
          "type": "string"
        }
      ],
      "name": "addRecipient",
      "outputs": [],
      "stateMutability": "nonpayable",
      "type": "function"
    },
    {
      "inputs": [],
      "name": "controller",
      "outputs": [
        {
          "internalType": "address",
          "name": "",
          "type": "address"
        }
      ],
      "stateMutability": "view",
      "type": "function"
    },
    {
      "inputs": [
        {
          "internalType": "uint256",
          "name": "_index",
          "type": "uint256"
        },
        {
          "internalType": "uint256",
          "name": "_startTime",
          "type": "uint256"
        },
        {
          "internalType": "uint256",
          "name": "_endTime",
          "type": "uint256"
        }
      ],
      "name": "getRecipientAddress",
      "outputs": [
        {
          "internalType": "address",
          "name": "",
          "type": "address"
        }
      ],
      "stateMutability": "view",
      "type": "function"
    },
    {
      "inputs": [],
      "name": "getRecipientCount",
      "outputs": [
        {
          "internalType": "uint256",
          "name": "",
          "type": "uint256"
        }
      ],
      "stateMutability": "view",
      "type": "function"
    },
    {
      "inputs": [],
      "name": "maxRecipients",
      "outputs": [
        {
          "internalType": "uint256",
          "name": "",
          "type": "uint256"
        }
      ],
      "stateMutability": "view",
      "type": "function"
    },
    {
      "inputs": [],
      "name": "owner",
      "outputs": [
        {
          "internalType": "address",
          "name": "",
          "type": "address"
        }
      ],
      "stateMutability": "view",
      "type": "function"
    },
    {
      "inputs": [
        {
          "internalType": "bytes32",
          "name": "_recipientId",
          "type": "bytes32"
        }
      ],
      "name": "removeRecipient",
      "outputs": [],
      "stateMutability": "nonpayable",
      "type": "function"
    },
    {
      "inputs": [],
      "name": "renounceOwnership",
      "outputs": [],
      "stateMutability": "nonpayable",
      "type": "function"
    },
    {
      "inputs": [
        {
          "internalType": "uint256",
          "name": "_maxRecipients",
          "type": "uint256"
        }
      ],
      "name": "setMaxRecipients",
      "outputs": [
        {
          "internalType": "bool",
          "name": "",
          "type": "bool"
        }
      ],
      "stateMutability": "nonpayable",
      "type": "function"
    },
    {
      "inputs": [
        {
          "internalType": "address",
          "name": "newOwner",
          "type": "address"
        }
      ],
      "name": "transferOwnership",
      "outputs": [],
      "stateMutability": "nonpayable",
      "type": "function"
    }
  ],
  "bytecode": "0x608060405234801561001057600080fd5b50604051610e91380380610e9183398101604081905261002f916100ad565b6100383361005d565b600180546001600160a01b0319166001600160a01b03929092169190911790556100dd565b600080546001600160a01b038381166001600160a01b0319831681178455604051919092169283917f8be0079c531659141344cd1fd0a4f28419497f9722a3daafe3b4186f6b6457e09190a35050565b6000602082840312156100bf57600080fd5b81516001600160a01b03811681146100d657600080fd5b9392505050565b610da5806100ec6000396000f3fe608060405234801561001057600080fd5b506004361061009e5760003560e01c80638da5cb5b116100665780638da5cb5b1461012a578063af99b63f1461013b578063d7c9ebdd14610143578063f2fde38b14610156578063f77c47911461016957600080fd5b8063148ec9ab146100a357806362564ed4146100cb578063715018a6146100f6578063739b53841461010057806388a1307214610113575b600080fd5b6100b66100b1366004610b5a565b61017c565b60405190151581526020015b60405180910390f35b6100de6100d9366004610b73565b610220565b6040516001600160a01b0390911681526020016100c2565b6100fe6103a1565b005b6100fe61010e366004610bbb565b6103b5565b61011c60025481565b6040519081526020016100c2565b6000546001600160a01b03166100de565b61011c6104f3565b6100fe610151366004610b5a565b61050a565b6100fe610164366004610c3e565b610558565b6001546100de906001600160a01b031681565b60006002548210156101fd576040805162461bcd60e51b81526020600482015260248101919091527f526563697069656e7452656769737472793a204d6178206e756d626572206f6660448201527f20726563697069656e74732063616e206e6f742062652064656372656173656460648201526084015b60405180910390fd5b6001546001600160a01b0316331461021757506000919050565b50600255600190565b6000831580610230575060055484115b1561023d5750600061039a565b6000600561024c600187610c6f565b8154811061025c5761025c610c86565b906000526020600020018054806020026020016040519081016040528092919081815260200182805480156102b057602002820191906000526020600020905b81548152602001906001019080831161029c575b505050505090508051600014156102cb57600091505061039a565b80516000905b8015610395576000836102e5600184610c6f565b815181106102f5576102f5610c86565b60209081029190910181015160008181526003808452604091829020825160808101845281546001600160a01b03168152600182015495810195909552600281015492850183905201546060840152909250871015610355575050610383565b60608101511580159061036c575087816060015111155b1561037e57839550505050505061039a565b519250505b8061038d81610c9c565b9150506102d1565b509150505b9392505050565b6103a96105d1565b6103b3600061062b565b565b6103bd6105d1565b6001600160a01b0383166104285760405162461bcd60e51b815260206004820152602c60248201527f526563697069656e7452656769737472793a20526563697069656e742061646460448201526b72657373206973207a65726f60a01b60648201526084016101f4565b8061048e5760405162461bcd60e51b815260206004820152603060248201527f526563697069656e7452656769737472793a204d6574616461746120696e666f60448201526f20697320656d70747920737472696e6760801b60648201526084016101f4565b600061049c3085858561067b565b905060006104aa82866106b4565b9050817fddc3968b1ce25baf13504e6d2de09bbf72f4b32b9d80e2f4914842f0f9217b0d86868685426040516104e4959493929190610cb3565b60405180910390a25050505050565b60045460055460009161050591610c6f565b905090565b6105126105d1565b61051b816109c6565b807fc678e7ee92280740c8b3be4826e92b29fb5477e2ddc3eb2e9ca45f74daa4972e4260405161054d91815260200190565b60405180910390a250565b6105606105d1565b6001600160a01b0381166105c55760405162461bcd60e51b815260206004820152602660248201527f4f776e61626c653a206e6577206f776e657220697320746865207a65726f206160448201526564647265737360d01b60648201526084016101f4565b6105ce8161062b565b50565b6000546001600160a01b031633146103b35760405162461bcd60e51b815260206004820181905260248201527f4f776e61626c653a2063616c6c6572206973206e6f7420746865206f776e657260448201526064016101f4565b600080546001600160a01b038381166001600160a01b0319831681178455604051919092169283917f8be0079c531659141344cd1fd0a4f28419497f9722a3daafe3b4186f6b6457e09190a35050565b6000848484846040516020016106949493929190610d04565b604051602081830303815290604052805190602001209050949350505050565b6000806002541161071d5760405162461bcd60e51b815260206004820152602d60248201527f526563697069656e7452656769737472793a20526563697069656e74206c696d60448201526c1a5d081a5cc81b9bdd081cd95d609a1b60648201526084016101f4565b600083815260036020526040902060010154156107945760405162461bcd60e51b815260206004820152602f60248201527f526563697069656e7452656769737472793a20526563697069656e7420616c7260448201526e1958591e481c9959da5cdd195c9959608a1b60648201526084016101f4565b60055460009081906107a7906001610d41565b905060025481116108465760408051600180825281830190925291925082916000916020808301908036833701905050905085816000815181106107ed576107ed610c86565b60209081029190910181019190915260058054600181018255600091909152825161083f927f036b6384b5eca791c62761152d0c79bb0604c104a5fb6f4eb0703f3154bb3db090920191840190610afa565b5050610958565b6004546108a85760405162461bcd60e51b815260206004820152602a60248201527f526563697069656e7452656769737472793a20526563697069656e74206c696d6044820152691a5d081c995858da195960b21b60648201526084016101f4565b60048054600091906108bc90600190610c6f565b815481106108cc576108cc610c86565b9060005260206000200154905060048054806108ea576108ea610d59565b600190038181906000526020600020016000905590556003600082815260200190815260200160002060010154925060056001846109289190610c6f565b8154811061093857610938610c86565b600091825260208083209091018054600181018255908352912001869055505b50604080516080810182526001600160a01b0380861682526020808301858152428486019081526000606086018181528b82526003948590529690209451855494166001600160a01b0319909416939093178455516001840155905160028301559151910155905092915050565b600081815260036020526040902060010154610a405760405162461bcd60e51b815260206004820152603360248201527f526563697069656e7452656769737472793a20526563697069656e74206973206044820152726e6f7420696e2074686520726567697374727960681b60648201526084016101f4565b6000818152600360208190526040909120015415610ab55760405162461bcd60e51b815260206004820152602c60248201527f526563697069656e7452656769737472793a20526563697069656e7420616c7260448201526b1958591e481c995b5bdd995960a21b60648201526084016101f4565b60008181526003602081905260408220429101556004805460018101825591527f8a35acfbc15ff81a39ae7d344fd709f28e8600b4aa8c65c6b64bfe7fe36bd19b0155565b828054828255906000526020600020908101928215610b35579160200282015b82811115610b35578251825591602001919060010190610b1a565b50610b41929150610b45565b5090565b5b80821115610b415760008155600101610b46565b600060208284031215610b6c57600080fd5b5035919050565b600080600060608486031215610b8857600080fd5b505081359360208301359350604090920135919050565b80356001600160a01b0381168114610bb657600080fd5b919050565b600080600060408486031215610bd057600080fd5b610bd984610b9f565b9250602084013567ffffffffffffffff80821115610bf657600080fd5b818601915086601f830112610c0a57600080fd5b813581811115610c1957600080fd5b876020828501011115610c2b57600080fd5b6020830194508093505050509250925092565b600060208284031215610c5057600080fd5b61039a82610b9f565b634e487b7160e01b600052601160045260246000fd5b600082821015610c8157610c81610c59565b500390565b634e487b7160e01b600052603260045260246000fd5b600081610cab57610cab610c59565b506000190190565b6001600160a01b03861681526080602082018190528101849052838560a0830137600060a08583010152600060a0601f19601f87011683010190508360408301528260608301529695505050505050565b60006bffffffffffffffffffffffff19808760601b168352808660601b166014840152508284602884013750600091016028019081529392505050565b60008219821115610d5457610d54610c59565b500190565b634e487b7160e01b600052603160045260246000fdfea2646970667358221220c0c28e63eb90a9d816aedd943bfb0fe914f3ec6b7289ddfe7f499264a1c26e2d64736f6c634300080a0033",
  "linkReferences": {},
  "deployedLinkReferences": {}
}