{
  "_format": "hh-sol-artifact-1",
  "contractName": "SimpleUserRegistry",
  "sourceName": "contracts/userRegistry/SimpleUserRegistry.sol",
  "abi": [
    {
      "inputs": [
        {
          "internalType": "address",
          "name": "owner",
          "type": "address"
        }
      ],
      "name": "OwnableInvalidOwner",
      "type": "error"
    },
    {
      "inputs": [
        {
          "internalType": "address",
          "name": "account",
          "type": "address"
        }
      ],
      "name": "OwnableUnauthorizedAccount",
      "type": "error"
    },
    {
      "anonymous": false,
      "inputs": [
        {
          "indexed": true,
          "internalType": "address",
          "name": "previousOwner",
          "type": "address"
        },
        {
          "indexed": true,
          "internalType": "address",
          "name": "newOwner",
          "type": "address"
        }
      ],
      "name": "OwnershipTransferred",
      "type": "event"
    },
    {
      "anonymous": false,
      "inputs": [
        {
          "indexed": true,
          "internalType": "address",
          "name": "_user",
          "type": "address"
        }
      ],
      "name": "UserAdded",
      "type": "event"
    },
    {
      "anonymous": false,
      "inputs": [
        {
          "indexed": true,
          "internalType": "address",
          "name": "_user",
          "type": "address"
        }
      ],
      "name": "UserRemoved",
      "type": "event"
    },
    {
      "inputs": [
        {
          "internalType": "address",
          "name": "_user",
          "type": "address"
        }
      ],
      "name": "addUser",
      "outputs": [],
      "stateMutability": "nonpayable",
      "type": "function"
    },
    {
      "inputs": [
        {
          "internalType": "address",
          "name": "_user",
          "type": "address"
        }
      ],
      "name": "isVerifiedUser",
      "outputs": [
        {
          "internalType": "bool",
          "name": "",
          "type": "bool"
        }
      ],
      "stateMutability": "view",
      "type": "function"
    },
    {
      "inputs": [],
      "name": "owner",
      "outputs": [
        {
          "internalType": "address",
          "name": "",
          "type": "address"
        }
      ],
      "stateMutability": "view",
      "type": "function"
    },
    {
      "inputs": [
        {
          "internalType": "address",
          "name": "_user",
          "type": "address"
        }
      ],
      "name": "removeUser",
      "outputs": [],
      "stateMutability": "nonpayable",
      "type": "function"
    },
    {
      "inputs": [],
      "name": "renounceOwnership",
      "outputs": [],
      "stateMutability": "nonpayable",
      "type": "function"
    },
    {
      "inputs": [
        {
          "internalType": "address",
          "name": "newOwner",
          "type": "address"
        }
      ],
      "name": "transferOwnership",
      "outputs": [],
      "stateMutability": "nonpayable",
      "type": "function"
    }
  ],
  "bytecode": "0x608060405234801561001057600080fd5b50338061003757604051631e4fbdf760e01b81526000600482015260240160405180910390fd5b61004081610046565b50610096565b600080546001600160a01b038381166001600160a01b0319831681178455604051919092169283917f8be0079c531659141344cd1fd0a4f28419497f9722a3daafe3b4186f6b6457e09190a35050565b610438806100a56000396000f3fe608060405234801561001057600080fd5b50600436106100625760003560e01c80633da1c0c314610067578063421b2d8b146100a8578063715018a6146100bd5780638da5cb5b146100c557806398575188146100e0578063f2fde38b146100f3575b600080fd5b6100936100753660046103d2565b6001600160a01b031660009081526001602052604090205460ff1690565b60405190151581526020015b60405180910390f35b6100bb6100b63660046103d2565b610106565b005b6100bb610238565b6000546040516001600160a01b03909116815260200161009f565b6100bb6100ee3660046103d2565b61024c565b6100bb6101013660046103d2565b610317565b61010e610355565b6001600160a01b0381166101745760405162461bcd60e51b815260206004820152602260248201527f5573657252656769737472793a20557365722061646472657373206973207a65604482015261726f60f01b60648201526084015b60405180910390fd5b6001600160a01b03811660009081526001602052604090205460ff16156101e95760405162461bcd60e51b815260206004820152602360248201527f5573657252656769737472793a205573657220616c72656164792076657269666044820152621a595960ea1b606482015260840161016b565b6001600160a01b0381166000818152600160208190526040808320805460ff1916909217909155517f19ef9a4877199f89440a26acb26895ec02ed86f2df1aeaa90dc18041b892f71f9190a250565b610240610355565b61024a6000610382565b565b610254610355565b6001600160a01b03811660009081526001602052604090205460ff166102ce5760405162461bcd60e51b815260206004820152602960248201527f5573657252656769737472793a2055736572206973206e6f7420696e2074686560448201526820726567697374727960b81b606482015260840161016b565b6001600160a01b038116600081815260016020526040808220805460ff19169055517fe9dce8c992623ce791725b21e857e33248d1f190a25b5168313420eebdaae99d9190a250565b61031f610355565b6001600160a01b03811661034957604051631e4fbdf760e01b81526000600482015260240161016b565b61035281610382565b50565b6000546001600160a01b0316331461024a5760405163118cdaa760e01b815233600482015260240161016b565b600080546001600160a01b038381166001600160a01b0319831681178455604051919092169283917f8be0079c531659141344cd1fd0a4f28419497f9722a3daafe3b4186f6b6457e09190a35050565b6000602082840312156103e457600080fd5b81356001600160a01b03811681146103fb57600080fd5b939250505056fea264697066735822122053ac46e2b8d75aab4575e2c9a0609971446b946dc6c4c66e4d87dc88cb1f9ecd64736f6c63430008140033",
  "linkReferences": {},
  "deployedLinkReferences": {}
}